{
	"loops.sol": {
		"SumArray": {
			"abi": [
				{
					"inputs": [
						{
							"internalType": "uint256[]",
							"name": "arr",
							"type": "uint256[]"
						}
					],
					"name": "sumOfArray",
					"outputs": [
						{
							"internalType": "uint256",
							"name": "",
							"type": "uint256"
						}
					],
					"stateMutability": "pure",
					"type": "function"
				}
			],
			"devdoc": {
				"kind": "dev",
				"methods": {},
				"version": 1
			},
			"evm": {
				"assembly": "    /* \"loops.sol\":588:870  contract SumArray {... */\n  mstore(0x40, 0x80)\n  callvalue\n  dup1\n  iszero\n  tag_1\n  jumpi\n  0x00\n  dup1\n  revert\ntag_1:\n  pop\n  dataSize(sub_0)\n  dup1\n  dataOffset(sub_0)\n  0x00\n  codecopy\n  0x00\n  return\nstop\n\nsub_0: assembly {\n        /* \"loops.sol\":588:870  contract SumArray {... */\n      mstore(0x40, 0x80)\n      callvalue\n      dup1\n      iszero\n      tag_1\n      jumpi\n      0x00\n      dup1\n      revert\n    tag_1:\n      pop\n      jumpi(tag_2, lt(calldatasize, 0x04))\n      shr(0xe0, calldataload(0x00))\n      dup1\n      0xd6165070\n      eq\n      tag_3\n      jumpi\n    tag_2:\n      0x00\n      dup1\n      revert\n        /* \"loops.sol\":613:867  function sumOfArray(uint256[] memory arr) public pure returns (uint256) {... */\n    tag_3:\n      tag_4\n      0x04\n      dup1\n      calldatasize\n      sub\n      dup2\n      add\n      swap1\n      tag_5\n      swap2\n      swap1\n      tag_6\n      jump\t// in\n    tag_5:\n      tag_7\n      jump\t// in\n    tag_4:\n      mload(0x40)\n      tag_8\n      swap2\n      swap1\n      tag_9\n      jump\t// in\n    tag_8:\n      mload(0x40)\n      dup1\n      swap2\n      sub\n      swap1\n      return\n    tag_7:\n        /* \"loops.sol\":676:683  uint256 */\n      0x00\n        /* \"loops.sol\":696:707  uint256 sum */\n      dup1\n        /* \"loops.sol\":710:711  0 */\n      0x00\n        /* \"loops.sol\":696:711  uint256 sum = 0 */\n      swap1\n      pop\n        /* \"loops.sol\":722:736  uint256 length */\n      0x00\n        /* \"loops.sol\":739:742  arr */\n      dup4\n        /* \"loops.sol\":739:749  arr.length */\n      mload\n        /* \"loops.sol\":722:749  uint256 length = arr.length */\n      swap1\n      pop\n        /* \"loops.sol\":767:776  uint256 i */\n      0x00\n        /* \"loops.sol\":762:839  for (uint256 i = 0; i < length; i++) {... */\n    tag_11:\n        /* \"loops.sol\":786:792  length */\n      dup2\n        /* \"loops.sol\":782:783  i */\n      dup2\n        /* \"loops.sol\":782:792  i < length */\n      lt\n        /* \"loops.sol\":762:839  for (uint256 i = 0; i < length; i++) {... */\n      iszero\n      tag_12\n      jumpi\n        /* \"loops.sol\":821:824  arr */\n      dup5\n        /* \"loops.sol\":825:826  i */\n      dup2\n        /* \"loops.sol\":821:827  arr[i] */\n      dup2\n      mload\n      dup2\n      lt\n      tag_14\n      jumpi\n      tag_15\n      tag_16\n      jump\t// in\n    tag_15:\n    tag_14:\n      0x20\n      mul\n      0x20\n      add\n      add\n      mload\n        /* \"loops.sol\":814:827  sum += arr[i] */\n      dup4\n      tag_17\n      swap2\n      swap1\n      tag_18\n      jump\t// in\n    tag_17:\n      swap3\n      pop\n        /* \"loops.sol\":794:797  i++ */\n      dup1\n      dup1\n      0x01\n      add\n      swap2\n      pop\n      pop\n        /* \"loops.sol\":762:839  for (uint256 i = 0; i < length; i++) {... */\n      jump(tag_11)\n    tag_12:\n      pop\n        /* \"loops.sol\":856:859  sum */\n      dup2\n        /* \"loops.sol\":849:859  return sum */\n      swap3\n      pop\n      pop\n      pop\n        /* \"loops.sol\":613:867  function sumOfArray(uint256[] memory arr) public pure returns (uint256) {... */\n      swap2\n      swap1\n      pop\n      jump\t// out\n        /* \"#utility.yul\":7:82   */\n    tag_19:\n        /* \"#utility.yul\":40:46   */\n      0x00\n        /* \"#utility.yul\":73:75   */\n      0x40\n        /* \"#utility.yul\":67:76   */\n      mload\n        /* \"#utility.yul\":57:76   */\n      swap1\n      pop\n        /* \"#utility.yul\":7:82   */\n      swap1\n      jump\t// out\n        /* \"#utility.yul\":88:205   */\n    tag_20:\n        /* \"#utility.yul\":197:198   */\n      0x00\n        /* \"#utility.yul\":194:195   */\n      dup1\n        /* \"#utility.yul\":187:199   */\n      revert\n        /* \"#utility.yul\":211:328   */\n    tag_21:\n        /* \"#utility.yul\":320:321   */\n      0x00\n        /* \"#utility.yul\":317:318   */\n      dup1\n        /* \"#utility.yul\":310:322   */\n      revert\n        /* \"#utility.yul\":334:451   */\n    tag_22:\n        /* \"#utility.yul\":443:444   */\n      0x00\n        /* \"#utility.yul\":440:441   */\n      dup1\n        /* \"#utility.yul\":433:445   */\n      revert\n        /* \"#utility.yul\":457:559   */\n    tag_23:\n        /* \"#utility.yul\":498:504   */\n      0x00\n        /* \"#utility.yul\":549:551   */\n      0x1f\n        /* \"#utility.yul\":545:552   */\n      not\n        /* \"#utility.yul\":540:542   */\n      0x1f\n        /* \"#utility.yul\":533:538   */\n      dup4\n        /* \"#utility.yul\":529:543   */\n      add\n        /* \"#utility.yul\":525:553   */\n      and\n        /* \"#utility.yul\":515:553   */\n      swap1\n      pop\n        /* \"#utility.yul\":457:559   */\n      swap2\n      swap1\n      pop\n      jump\t// out\n        /* \"#utility.yul\":565:745   */\n    tag_24:\n        /* \"#utility.yul\":613:690   */\n      0x4e487b7100000000000000000000000000000000000000000000000000000000\n        /* \"#utility.yul\":610:611   */\n      0x00\n        /* \"#utility.yul\":603:691   */\n      mstore\n        /* \"#utility.yul\":710:714   */\n      0x41\n        /* \"#utility.yul\":707:708   */\n      0x04\n        /* \"#utility.yul\":700:715   */\n      mstore\n        /* \"#utility.yul\":734:738   */\n      0x24\n        /* \"#utility.yul\":731:732   */\n      0x00\n        /* \"#utility.yul\":724:739   */\n      revert\n        /* \"#utility.yul\":751:1032   */\n    tag_25:\n        /* \"#utility.yul\":834:861   */\n      tag_44\n        /* \"#utility.yul\":856:860   */\n      dup3\n        /* \"#utility.yul\":834:861   */\n      tag_23\n      jump\t// in\n    tag_44:\n        /* \"#utility.yul\":826:832   */\n      dup2\n        /* \"#utility.yul\":822:862   */\n      add\n        /* \"#utility.yul\":964:970   */\n      dup2\n        /* \"#utility.yul\":952:962   */\n      dup2\n        /* \"#utility.yul\":949:971   */\n      lt\n        /* \"#utility.yul\":928:946   */\n      0xffffffffffffffff\n        /* \"#utility.yul\":916:926   */\n      dup3\n        /* \"#utility.yul\":913:947   */\n      gt\n        /* \"#utility.yul\":910:972   */\n      or\n        /* \"#utility.yul\":907:995   */\n      iszero\n      tag_45\n      jumpi\n        /* \"#utility.yul\":975:993   */\n      tag_46\n      tag_24\n      jump\t// in\n    tag_46:\n        /* \"#utility.yul\":907:995   */\n    tag_45:\n        /* \"#utility.yul\":1015:1025   */\n      dup1\n        /* \"#utility.yul\":1011:1013   */\n      0x40\n        /* \"#utility.yul\":1004:1026   */\n      mstore\n        /* \"#utility.yul\":794:1032   */\n      pop\n        /* \"#utility.yul\":751:1032   */\n      pop\n      pop\n      jump\t// out\n        /* \"#utility.yul\":1038:1167   */\n    tag_26:\n        /* \"#utility.yul\":1072:1078   */\n      0x00\n        /* \"#utility.yul\":1099:1119   */\n      tag_48\n      tag_19\n      jump\t// in\n    tag_48:\n        /* \"#utility.yul\":1089:1119   */\n      swap1\n      pop\n        /* \"#utility.yul\":1128:1161   */\n      tag_49\n        /* \"#utility.yul\":1156:1160   */\n      dup3\n        /* \"#utility.yul\":1148:1154   */\n      dup3\n        /* \"#utility.yul\":1128:1161   */\n      tag_25\n      jump\t// in\n    tag_49:\n        /* \"#utility.yul\":1038:1167   */\n      swap2\n      swap1\n      pop\n      jump\t// out\n        /* \"#utility.yul\":1173:1484   */\n    tag_27:\n        /* \"#utility.yul\":1250:1254   */\n      0x00\n        /* \"#utility.yul\":1340:1358   */\n      0xffffffffffffffff\n        /* \"#utility.yul\":1332:1338   */\n      dup3\n        /* \"#utility.yul\":1329:1359   */\n      gt\n        /* \"#utility.yul\":1326:1382   */\n      iszero\n      tag_51\n      jumpi\n        /* \"#utility.yul\":1362:1380   */\n      tag_52\n      tag_24\n      jump\t// in\n    tag_52:\n        /* \"#utility.yul\":1326:1382   */\n    tag_51:\n        /* \"#utility.yul\":1412:1416   */\n      0x20\n        /* \"#utility.yul\":1404:1410   */\n      dup3\n        /* \"#utility.yul\":1400:1417   */\n      mul\n        /* \"#utility.yul\":1392:1417   */\n      swap1\n      pop\n        /* \"#utility.yul\":1472:1476   */\n      0x20\n        /* \"#utility.yul\":1466:1470   */\n      dup2\n        /* \"#utility.yul\":1462:1477   */\n      add\n        /* \"#utility.yul\":1454:1477   */\n      swap1\n      pop\n        /* \"#utility.yul\":1173:1484   */\n      swap2\n      swap1\n      pop\n      jump\t// out\n        /* \"#utility.yul\":1490:1607   */\n    tag_28:\n        /* \"#utility.yul\":1599:1600   */\n      0x00\n        /* \"#utility.yul\":1596:1597   */\n      dup1\n        /* \"#utility.yul\":1589:1601   */\n      revert\n        /* \"#utility.yul\":1613:1690   */\n    tag_29:\n        /* \"#utility.yul\":1650:1657   */\n      0x00\n        /* \"#utility.yul\":1679:1684   */\n      dup2\n        /* \"#utility.yul\":1668:1684   */\n      swap1\n      pop\n        /* \"#utility.yul\":1613:1690   */\n      swap2\n      swap1\n      pop\n      jump\t// out\n        /* \"#utility.yul\":1696:1818   */\n    tag_30:\n        /* \"#utility.yul\":1769:1793   */\n      tag_56\n        /* \"#utility.yul\":1787:1792   */\n      dup2\n        /* \"#utility.yul\":1769:1793   */\n      tag_29\n      jump\t// in\n    tag_56:\n        /* \"#utility.yul\":1762:1767   */\n      dup2\n        /* \"#utility.yul\":1759:1794   */\n      eq\n        /* \"#utility.yul\":1749:1812   */\n      tag_57\n      jumpi\n        /* \"#utility.yul\":1808:1809   */\n      0x00\n        /* \"#utility.yul\":1805:1806   */\n      dup1\n        /* \"#utility.yul\":1798:1810   */\n      revert\n        /* \"#utility.yul\":1749:1812   */\n    tag_57:\n        /* \"#utility.yul\":1696:1818   */\n      pop\n      jump\t// out\n        /* \"#utility.yul\":1824:1963   */\n    tag_31:\n        /* \"#utility.yul\":1870:1875   */\n      0x00\n        /* \"#utility.yul\":1908:1914   */\n      dup2\n        /* \"#utility.yul\":1895:1915   */\n      calldataload\n        /* \"#utility.yul\":1886:1915   */\n      swap1\n      pop\n        /* \"#utility.yul\":1924:1957   */\n      tag_59\n        /* \"#utility.yul\":1951:1956   */\n      dup2\n        /* \"#utility.yul\":1924:1957   */\n      tag_30\n      jump\t// in\n    tag_59:\n        /* \"#utility.yul\":1824:1963   */\n      swap3\n      swap2\n      pop\n      pop\n      jump\t// out\n        /* \"#utility.yul\":1986:2696   */\n    tag_32:\n        /* \"#utility.yul\":2082:2087   */\n      0x00\n        /* \"#utility.yul\":2107:2188   */\n      tag_61\n        /* \"#utility.yul\":2123:2187   */\n      tag_62\n        /* \"#utility.yul\":2180:2186   */\n      dup5\n        /* \"#utility.yul\":2123:2187   */\n      tag_27\n      jump\t// in\n    tag_62:\n        /* \"#utility.yul\":2107:2188   */\n      tag_26\n      jump\t// in\n    tag_61:\n        /* \"#utility.yul\":2098:2188   */\n      swap1\n      pop\n        /* \"#utility.yul\":2208:2213   */\n      dup1\n        /* \"#utility.yul\":2237:2243   */\n      dup4\n        /* \"#utility.yul\":2230:2235   */\n      dup3\n        /* \"#utility.yul\":2223:2244   */\n      mstore\n        /* \"#utility.yul\":2271:2275   */\n      0x20\n        /* \"#utility.yul\":2264:2269   */\n      dup3\n        /* \"#utility.yul\":2260:2276   */\n      add\n        /* \"#utility.yul\":2253:2276   */\n      swap1\n      pop\n        /* \"#utility.yul\":2324:2328   */\n      0x20\n        /* \"#utility.yul\":2316:2322   */\n      dup5\n        /* \"#utility.yul\":2312:2329   */\n      mul\n        /* \"#utility.yul\":2304:2310   */\n      dup4\n        /* \"#utility.yul\":2300:2330   */\n      add\n        /* \"#utility.yul\":2353:2356   */\n      dup6\n        /* \"#utility.yul\":2345:2351   */\n      dup2\n        /* \"#utility.yul\":2342:2357   */\n      gt\n        /* \"#utility.yul\":2339:2461   */\n      iszero\n      tag_63\n      jumpi\n        /* \"#utility.yul\":2372:2451   */\n      tag_64\n      tag_28\n      jump\t// in\n    tag_64:\n        /* \"#utility.yul\":2339:2461   */\n    tag_63:\n        /* \"#utility.yul\":2487:2493   */\n      dup4\n        /* \"#utility.yul\":2470:2690   */\n    tag_65:\n        /* \"#utility.yul\":2504:2510   */\n      dup2\n        /* \"#utility.yul\":2499:2502   */\n      dup2\n        /* \"#utility.yul\":2496:2511   */\n      lt\n        /* \"#utility.yul\":2470:2690   */\n      iszero\n      tag_67\n      jumpi\n        /* \"#utility.yul\":2579:2582   */\n      dup1\n        /* \"#utility.yul\":2608:2645   */\n      tag_68\n        /* \"#utility.yul\":2641:2644   */\n      dup9\n        /* \"#utility.yul\":2629:2639   */\n      dup3\n        /* \"#utility.yul\":2608:2645   */\n      tag_31\n      jump\t// in\n    tag_68:\n        /* \"#utility.yul\":2603:2606   */\n      dup5\n        /* \"#utility.yul\":2596:2646   */\n      mstore\n        /* \"#utility.yul\":2675:2679   */\n      0x20\n        /* \"#utility.yul\":2670:2673   */\n      dup5\n        /* \"#utility.yul\":2666:2680   */\n      add\n        /* \"#utility.yul\":2659:2680   */\n      swap4\n      pop\n        /* \"#utility.yul\":2546:2690   */\n      pop\n        /* \"#utility.yul\":2530:2534   */\n      0x20\n        /* \"#utility.yul\":2525:2528   */\n      dup2\n        /* \"#utility.yul\":2521:2535   */\n      add\n        /* \"#utility.yul\":2514:2535   */\n      swap1\n      pop\n        /* \"#utility.yul\":2470:2690   */\n      jump(tag_65)\n    tag_67:\n        /* \"#utility.yul\":2474:2495   */\n      pop\n        /* \"#utility.yul\":2088:2696   */\n      pop\n      pop\n        /* \"#utility.yul\":1986:2696   */\n      swap4\n      swap3\n      pop\n      pop\n      pop\n      jump\t// out\n        /* \"#utility.yul\":2719:3089   */\n    tag_33:\n        /* \"#utility.yul\":2790:2795   */\n      0x00\n        /* \"#utility.yul\":2839:2842   */\n      dup3\n        /* \"#utility.yul\":2832:2836   */\n      0x1f\n        /* \"#utility.yul\":2824:2830   */\n      dup4\n        /* \"#utility.yul\":2820:2837   */\n      add\n        /* \"#utility.yul\":2816:2843   */\n      slt\n        /* \"#utility.yul\":2806:2928   */\n      tag_70\n      jumpi\n        /* \"#utility.yul\":2847:2926   */\n      tag_71\n      tag_22\n      jump\t// in\n    tag_71:\n        /* \"#utility.yul\":2806:2928   */\n    tag_70:\n        /* \"#utility.yul\":2964:2970   */\n      dup2\n        /* \"#utility.yul\":2951:2971   */\n      calldataload\n        /* \"#utility.yul\":2989:3083   */\n      tag_72\n        /* \"#utility.yul\":3079:3082   */\n      dup5\n        /* \"#utility.yul\":3071:3077   */\n      dup3\n        /* \"#utility.yul\":3064:3068   */\n      0x20\n        /* \"#utility.yul\":3056:3062   */\n      dup7\n        /* \"#utility.yul\":3052:3069   */\n      add\n        /* \"#utility.yul\":2989:3083   */\n      tag_32\n      jump\t// in\n    tag_72:\n        /* \"#utility.yul\":2980:3083   */\n      swap2\n      pop\n        /* \"#utility.yul\":2796:3089   */\n      pop\n        /* \"#utility.yul\":2719:3089   */\n      swap3\n      swap2\n      pop\n      pop\n      jump\t// out\n        /* \"#utility.yul\":3095:3634   */\n    tag_6:\n        /* \"#utility.yul\":3179:3185   */\n      0x00\n        /* \"#utility.yul\":3228:3230   */\n      0x20\n        /* \"#utility.yul\":3216:3225   */\n      dup3\n        /* \"#utility.yul\":3207:3214   */\n      dup5\n        /* \"#utility.yul\":3203:3226   */\n      sub\n        /* \"#utility.yul\":3199:3231   */\n      slt\n        /* \"#utility.yul\":3196:3315   */\n      iszero\n      tag_74\n      jumpi\n        /* \"#utility.yul\":3234:3313   */\n      tag_75\n      tag_20\n      jump\t// in\n    tag_75:\n        /* \"#utility.yul\":3196:3315   */\n    tag_74:\n        /* \"#utility.yul\":3382:3383   */\n      0x00\n        /* \"#utility.yul\":3371:3380   */\n      dup3\n        /* \"#utility.yul\":3367:3384   */\n      add\n        /* \"#utility.yul\":3354:3385   */\n      calldataload\n        /* \"#utility.yul\":3412:3430   */\n      0xffffffffffffffff\n        /* \"#utility.yul\":3404:3410   */\n      dup2\n        /* \"#utility.yul\":3401:3431   */\n      gt\n        /* \"#utility.yul\":3398:3515   */\n      iszero\n      tag_76\n      jumpi\n        /* \"#utility.yul\":3434:3513   */\n      tag_77\n      tag_21\n      jump\t// in\n    tag_77:\n        /* \"#utility.yul\":3398:3515   */\n    tag_76:\n        /* \"#utility.yul\":3539:3617   */\n      tag_78\n        /* \"#utility.yul\":3609:3616   */\n      dup5\n        /* \"#utility.yul\":3600:3606   */\n      dup3\n        /* \"#utility.yul\":3589:3598   */\n      dup6\n        /* \"#utility.yul\":3585:3607   */\n      add\n        /* \"#utility.yul\":3539:3617   */\n      tag_33\n      jump\t// in\n    tag_78:\n        /* \"#utility.yul\":3529:3617   */\n      swap2\n      pop\n        /* \"#utility.yul\":3325:3627   */\n      pop\n        /* \"#utility.yul\":3095:3634   */\n      swap3\n      swap2\n      pop\n      pop\n      jump\t// out\n        /* \"#utility.yul\":3640:3758   */\n    tag_34:\n        /* \"#utility.yul\":3727:3751   */\n      tag_80\n        /* \"#utility.yul\":3745:3750   */\n      dup2\n        /* \"#utility.yul\":3727:3751   */\n      tag_29\n      jump\t// in\n    tag_80:\n        /* \"#utility.yul\":3722:3725   */\n      dup3\n        /* \"#utility.yul\":3715:3752   */\n      mstore\n        /* \"#utility.yul\":3640:3758   */\n      pop\n      pop\n      jump\t// out\n        /* \"#utility.yul\":3764:3986   */\n    tag_9:\n        /* \"#utility.yul\":3857:3861   */\n      0x00\n        /* \"#utility.yul\":3895:3897   */\n      0x20\n        /* \"#utility.yul\":3884:3893   */\n      dup3\n        /* \"#utility.yul\":3880:3898   */\n      add\n        /* \"#utility.yul\":3872:3898   */\n      swap1\n      pop\n        /* \"#utility.yul\":3908:3979   */\n      tag_82\n        /* \"#utility.yul\":3976:3977   */\n      0x00\n        /* \"#utility.yul\":3965:3974   */\n      dup4\n        /* \"#utility.yul\":3961:3978   */\n      add\n        /* \"#utility.yul\":3952:3958   */\n      dup5\n        /* \"#utility.yul\":3908:3979   */\n      tag_34\n      jump\t// in\n    tag_82:\n        /* \"#utility.yul\":3764:3986   */\n      swap3\n      swap2\n      pop\n      pop\n      jump\t// out\n        /* \"#utility.yul\":3992:4172   */\n    tag_16:\n        /* \"#utility.yul\":4040:4117   */\n      0x4e487b7100000000000000000000000000000000000000000000000000000000\n        /* \"#utility.yul\":4037:4038   */\n      0x00\n        /* \"#utility.yul\":4030:4118   */\n      mstore\n        /* \"#utility.yul\":4137:4141   */\n      0x32\n        /* \"#utility.yul\":4134:4135   */\n      0x04\n        /* \"#utility.yul\":4127:4142   */\n      mstore\n        /* \"#utility.yul\":4161:4165   */\n      0x24\n        /* \"#utility.yul\":4158:4159   */\n      0x00\n        /* \"#utility.yul\":4151:4166   */\n      revert\n        /* \"#utility.yul\":4178:4358   */\n    tag_35:\n        /* \"#utility.yul\":4226:4303   */\n      0x4e487b7100000000000000000000000000000000000000000000000000000000\n        /* \"#utility.yul\":4223:4224   */\n      0x00\n        /* \"#utility.yul\":4216:4304   */\n      mstore\n        /* \"#utility.yul\":4323:4327   */\n      0x11\n        /* \"#utility.yul\":4320:4321   */\n      0x04\n        /* \"#utility.yul\":4313:4328   */\n      mstore\n        /* \"#utility.yul\":4347:4351   */\n      0x24\n        /* \"#utility.yul\":4344:4345   */\n      0x00\n        /* \"#utility.yul\":4337:4352   */\n      revert\n        /* \"#utility.yul\":4364:4555   */\n    tag_18:\n        /* \"#utility.yul\":4404:4407   */\n      0x00\n        /* \"#utility.yul\":4423:4443   */\n      tag_86\n        /* \"#utility.yul\":4441:4442   */\n      dup3\n        /* \"#utility.yul\":4423:4443   */\n      tag_29\n      jump\t// in\n    tag_86:\n        /* \"#utility.yul\":4418:4443   */\n      swap2\n      pop\n        /* \"#utility.yul\":4457:4477   */\n      tag_87\n        /* \"#utility.yul\":4475:4476   */\n      dup4\n        /* \"#utility.yul\":4457:4477   */\n      tag_29\n      jump\t// in\n    tag_87:\n        /* \"#utility.yul\":4452:4477   */\n      swap3\n      pop\n        /* \"#utility.yul\":4500:4501   */\n      dup3\n        /* \"#utility.yul\":4497:4498   */\n      dup3\n        /* \"#utility.yul\":4493:4502   */\n      add\n        /* \"#utility.yul\":4486:4502   */\n      swap1\n      pop\n        /* \"#utility.yul\":4521:4524   */\n      dup1\n        /* \"#utility.yul\":4518:4519   */\n      dup3\n        /* \"#utility.yul\":4515:4525   */\n      gt\n        /* \"#utility.yul\":4512:4548   */\n      iszero\n      tag_88\n      jumpi\n        /* \"#utility.yul\":4528:4546   */\n      tag_89\n      tag_35\n      jump\t// in\n    tag_89:\n        /* \"#utility.yul\":4512:4548   */\n    tag_88:\n        /* \"#utility.yul\":4364:4555   */\n      swap3\n      swap2\n      pop\n      pop\n      jump\t// out\n\n    auxdata: 0xa2646970667358221220c76b593ef178eb06d5add9a0ef962d2ca36a62d7a61eecc35aac05953dc12e3264736f6c634300081a0033\n}\n",
				"bytecode": {
					"linkReferences": {},
					"object": "6080604052348015600e575f80fd5b506103778061001c5f395ff3fe608060405234801561000f575f80fd5b5060043610610029575f3560e01c8063d61650701461002d575b5f80fd5b61004760048036038101906100429190610245565b61005d565b604051610054919061029b565b60405180910390f35b5f805f90505f835190505f5b818110156100a657848181518110610084576100836102b4565b5b602002602001015183610097919061030e565b92508080600101915050610069565b508192505050919050565b5f604051905090565b5f80fd5b5f80fd5b5f80fd5b5f601f19601f8301169050919050565b7f4e487b71000000000000000000000000000000000000000000000000000000005f52604160045260245ffd5b61010c826100c6565b810181811067ffffffffffffffff8211171561012b5761012a6100d6565b5b80604052505050565b5f61013d6100b1565b90506101498282610103565b919050565b5f67ffffffffffffffff821115610168576101676100d6565b5b602082029050602081019050919050565b5f80fd5b5f819050919050565b61018f8161017d565b8114610199575f80fd5b50565b5f813590506101aa81610186565b92915050565b5f6101c26101bd8461014e565b610134565b905080838252602082019050602084028301858111156101e5576101e4610179565b5b835b8181101561020e57806101fa888261019c565b8452602084019350506020810190506101e7565b5050509392505050565b5f82601f83011261022c5761022b6100c2565b5b813561023c8482602086016101b0565b91505092915050565b5f6020828403121561025a576102596100ba565b5b5f82013567ffffffffffffffff811115610277576102766100be565b5b61028384828501610218565b91505092915050565b6102958161017d565b82525050565b5f6020820190506102ae5f83018461028c565b92915050565b7f4e487b71000000000000000000000000000000000000000000000000000000005f52603260045260245ffd5b7f4e487b71000000000000000000000000000000000000000000000000000000005f52601160045260245ffd5b5f6103188261017d565b91506103238361017d565b925082820190508082111561033b5761033a6102e1565b5b9291505056fea2646970667358221220c76b593ef178eb06d5add9a0ef962d2ca36a62d7a61eecc35aac05953dc12e3264736f6c634300081a0033",
					"opcodes": "PUSH1 0x80 PUSH1 0x40 MSTORE CALLVALUE DUP1 ISZERO PUSH1 0xE JUMPI PUSH0 DUP1 REVERT JUMPDEST POP PUSH2 0x377 DUP1 PUSH2 0x1C PUSH0 CODECOPY PUSH0 RETURN INVALID PUSH1 0x80 PUSH1 0x40 MSTORE CALLVALUE DUP1 ISZERO PUSH2 0xF JUMPI PUSH0 DUP1 REVERT JUMPDEST POP PUSH1 0x4 CALLDATASIZE LT PUSH2 0x29 JUMPI PUSH0 CALLDATALOAD PUSH1 0xE0 SHR DUP1 PUSH4 0xD6165070 EQ PUSH2 0x2D JUMPI JUMPDEST PUSH0 DUP1 REVERT JUMPDEST PUSH2 0x47 PUSH1 0x4 DUP1 CALLDATASIZE SUB DUP2 ADD SWAP1 PUSH2 0x42 SWAP2 SWAP1 PUSH2 0x245 JUMP JUMPDEST PUSH2 0x5D JUMP JUMPDEST PUSH1 0x40 MLOAD PUSH2 0x54 SWAP2 SWAP1 PUSH2 0x29B JUMP JUMPDEST PUSH1 0x40 MLOAD DUP1 SWAP2 SUB SWAP1 RETURN JUMPDEST PUSH0 DUP1 PUSH0 SWAP1 POP PUSH0 DUP4 MLOAD SWAP1 POP PUSH0 JUMPDEST DUP2 DUP2 LT ISZERO PUSH2 0xA6 JUMPI DUP5 DUP2 DUP2 MLOAD DUP2 LT PUSH2 0x84 JUMPI PUSH2 0x83 PUSH2 0x2B4 JUMP JUMPDEST JUMPDEST PUSH1 0x20 MUL PUSH1 0x20 ADD ADD MLOAD DUP4 PUSH2 0x97 SWAP2 SWAP1 PUSH2 0x30E JUMP JUMPDEST SWAP3 POP DUP1 DUP1 PUSH1 0x1 ADD SWAP2 POP POP PUSH2 0x69 JUMP JUMPDEST POP DUP2 SWAP3 POP POP POP SWAP2 SWAP1 POP JUMP JUMPDEST PUSH0 PUSH1 0x40 MLOAD SWAP1 POP SWAP1 JUMP JUMPDEST PUSH0 DUP1 REVERT JUMPDEST PUSH0 DUP1 REVERT JUMPDEST PUSH0 DUP1 REVERT JUMPDEST PUSH0 PUSH1 0x1F NOT PUSH1 0x1F DUP4 ADD AND SWAP1 POP SWAP2 SWAP1 POP JUMP JUMPDEST PUSH32 0x4E487B7100000000000000000000000000000000000000000000000000000000 PUSH0 MSTORE PUSH1 0x41 PUSH1 0x4 MSTORE PUSH1 0x24 PUSH0 REVERT JUMPDEST PUSH2 0x10C DUP3 PUSH2 0xC6 JUMP JUMPDEST DUP2 ADD DUP2 DUP2 LT PUSH8 0xFFFFFFFFFFFFFFFF DUP3 GT OR ISZERO PUSH2 0x12B JUMPI PUSH2 0x12A PUSH2 0xD6 JUMP JUMPDEST JUMPDEST DUP1 PUSH1 0x40 MSTORE POP POP POP JUMP JUMPDEST PUSH0 PUSH2 0x13D PUSH2 0xB1 JUMP JUMPDEST SWAP1 POP PUSH2 0x149 DUP3 DUP3 PUSH2 0x103 JUMP JUMPDEST SWAP2 SWAP1 POP JUMP JUMPDEST PUSH0 PUSH8 0xFFFFFFFFFFFFFFFF DUP3 GT ISZERO PUSH2 0x168 JUMPI PUSH2 0x167 PUSH2 0xD6 JUMP JUMPDEST JUMPDEST PUSH1 0x20 DUP3 MUL SWAP1 POP PUSH1 0x20 DUP2 ADD SWAP1 POP SWAP2 SWAP1 POP JUMP JUMPDEST PUSH0 DUP1 REVERT JUMPDEST PUSH0 DUP2 SWAP1 POP SWAP2 SWAP1 POP JUMP JUMPDEST PUSH2 0x18F DUP2 PUSH2 0x17D JUMP JUMPDEST DUP2 EQ PUSH2 0x199 JUMPI PUSH0 DUP1 REVERT JUMPDEST POP JUMP JUMPDEST PUSH0 DUP2 CALLDATALOAD SWAP1 POP PUSH2 0x1AA DUP2 PUSH2 0x186 JUMP JUMPDEST SWAP3 SWAP2 POP POP JUMP JUMPDEST PUSH0 PUSH2 0x1C2 PUSH2 0x1BD DUP5 PUSH2 0x14E JUMP JUMPDEST PUSH2 0x134 JUMP JUMPDEST SWAP1 POP DUP1 DUP4 DUP3 MSTORE PUSH1 0x20 DUP3 ADD SWAP1 POP PUSH1 0x20 DUP5 MUL DUP4 ADD DUP6 DUP2 GT ISZERO PUSH2 0x1E5 JUMPI PUSH2 0x1E4 PUSH2 0x179 JUMP JUMPDEST JUMPDEST DUP4 JUMPDEST DUP2 DUP2 LT ISZERO PUSH2 0x20E JUMPI DUP1 PUSH2 0x1FA DUP9 DUP3 PUSH2 0x19C JUMP JUMPDEST DUP5 MSTORE PUSH1 0x20 DUP5 ADD SWAP4 POP POP PUSH1 0x20 DUP2 ADD SWAP1 POP PUSH2 0x1E7 JUMP JUMPDEST POP POP POP SWAP4 SWAP3 POP POP POP JUMP JUMPDEST PUSH0 DUP3 PUSH1 0x1F DUP4 ADD SLT PUSH2 0x22C JUMPI PUSH2 0x22B PUSH2 0xC2 JUMP JUMPDEST JUMPDEST DUP2 CALLDATALOAD PUSH2 0x23C DUP5 DUP3 PUSH1 0x20 DUP7 ADD PUSH2 0x1B0 JUMP JUMPDEST SWAP2 POP POP SWAP3 SWAP2 POP POP JUMP JUMPDEST PUSH0 PUSH1 0x20 DUP3 DUP5 SUB SLT ISZERO PUSH2 0x25A JUMPI PUSH2 0x259 PUSH2 0xBA JUMP JUMPDEST JUMPDEST PUSH0 DUP3 ADD CALLDATALOAD PUSH8 0xFFFFFFFFFFFFFFFF DUP2 GT ISZERO PUSH2 0x277 JUMPI PUSH2 0x276 PUSH2 0xBE JUMP JUMPDEST JUMPDEST PUSH2 0x283 DUP5 DUP3 DUP6 ADD PUSH2 0x218 JUMP JUMPDEST SWAP2 POP POP SWAP3 SWAP2 POP POP JUMP JUMPDEST PUSH2 0x295 DUP2 PUSH2 0x17D JUMP JUMPDEST DUP3 MSTORE POP POP JUMP JUMPDEST PUSH0 PUSH1 0x20 DUP3 ADD SWAP1 POP PUSH2 0x2AE PUSH0 DUP4 ADD DUP5 PUSH2 0x28C JUMP JUMPDEST SWAP3 SWAP2 POP POP JUMP JUMPDEST PUSH32 0x4E487B7100000000000000000000000000000000000000000000000000000000 PUSH0 MSTORE PUSH1 0x32 PUSH1 0x4 MSTORE PUSH1 0x24 PUSH0 REVERT JUMPDEST PUSH32 0x4E487B7100000000000000000000000000000000000000000000000000000000 PUSH0 MSTORE PUSH1 0x11 PUSH1 0x4 MSTORE PUSH1 0x24 PUSH0 REVERT JUMPDEST PUSH0 PUSH2 0x318 DUP3 PUSH2 0x17D JUMP JUMPDEST SWAP2 POP PUSH2 0x323 DUP4 PUSH2 0x17D JUMP JUMPDEST SWAP3 POP DUP3 DUP3 ADD SWAP1 POP DUP1 DUP3 GT ISZERO PUSH2 0x33B JUMPI PUSH2 0x33A PUSH2 0x2E1 JUMP JUMPDEST JUMPDEST SWAP3 SWAP2 POP POP JUMP INVALID LOG2 PUSH5 0x6970667358 0x22 SLT KECCAK256 0xC7 PUSH12 0x593EF178EB06D5ADD9A0EF96 0x2D 0x2C LOG3 PUSH11 0x62D7A61EECC35AAC05953D 0xC1 0x2E ORIGIN PUSH5 0x736F6C6343 STOP ADDMOD BYTE STOP CALLER "
				},
				"gasEstimates": {
					"creation": {
						"codeDepositCost": "177400",
						"executionCost": "218",
						"totalCost": "177618"
					},
					"external": {
						"sumOfArray(uint256[])": "infinite"
					}
				},
				"methodIdentifiers": {
					"sumOfArray(uint256[])": "d6165070"
				}
			},
			"storageLayout": {
				"storage": [],
				"types": null
			},
			"userdoc": {
				"kind": "user",
				"methods": {},
				"version": 1
			}
		}
	}
}