{
	"calculator.sol": {
		"Calculator": {
			"abi": [
				{
					"inputs": [
						{
							"internalType": "int256",
							"name": "a",
							"type": "int256"
						},
						{
							"internalType": "int256",
							"name": "b",
							"type": "int256"
						}
					],
					"name": "add",
					"outputs": [
						{
							"internalType": "int256",
							"name": "",
							"type": "int256"
						}
					],
					"stateMutability": "pure",
					"type": "function"
				},
				{
					"inputs": [
						{
							"internalType": "int256",
							"name": "a",
							"type": "int256"
						},
						{
							"internalType": "int256",
							"name": "b",
							"type": "int256"
						}
					],
					"name": "divide",
					"outputs": [
						{
							"internalType": "int256",
							"name": "",
							"type": "int256"
						}
					],
					"stateMutability": "pure",
					"type": "function"
				},
				{
					"inputs": [
						{
							"internalType": "int256",
							"name": "a",
							"type": "int256"
						},
						{
							"internalType": "int256",
							"name": "b",
							"type": "int256"
						}
					],
					"name": "multiply",
					"outputs": [
						{
							"internalType": "int256",
							"name": "",
							"type": "int256"
						}
					],
					"stateMutability": "pure",
					"type": "function"
				},
				{
					"inputs": [
						{
							"internalType": "int256",
							"name": "a",
							"type": "int256"
						},
						{
							"internalType": "int256",
							"name": "b",
							"type": "int256"
						}
					],
					"name": "substract",
					"outputs": [
						{
							"internalType": "int256",
							"name": "",
							"type": "int256"
						}
					],
					"stateMutability": "pure",
					"type": "function"
				}
			],
			"devdoc": {
				"kind": "dev",
				"methods": {},
				"version": 1
			},
			"evm": {
				"assembly": "    /* \"calculator.sol\":60:558  contract Calculator {... */\n  mstore(0x40, 0x80)\n  callvalue\n  dup1\n  iszero\n  tag_1\n  jumpi\n  0x00\n  dup1\n  revert\ntag_1:\n  pop\n  dataSize(sub_0)\n  dup1\n  dataOffset(sub_0)\n  0x00\n  codecopy\n  0x00\n  return\nstop\n\nsub_0: assembly {\n        /* \"calculator.sol\":60:558  contract Calculator {... */\n      mstore(0x40, 0x80)\n      callvalue\n      dup1\n      iszero\n      tag_1\n      jumpi\n      0x00\n      dup1\n      revert\n    tag_1:\n      pop\n      jumpi(tag_2, lt(calldatasize, 0x04))\n      shr(0xe0, calldataload(0x00))\n      dup1\n      0x3c4308a8\n      eq\n      tag_3\n      jumpi\n      dup1\n      0x70027005\n      eq\n      tag_4\n      jumpi\n      dup1\n      0xa5f3c23b\n      eq\n      tag_5\n      jumpi\n      dup1\n      0xf5984236\n      eq\n      tag_6\n      jumpi\n    tag_2:\n      0x00\n      dup1\n      revert\n        /* \"calculator.sol\":295:393  function multiply(int256 a, int256 b) public pure returns (int256) {... */\n    tag_3:\n      tag_7\n      0x04\n      dup1\n      calldatasize\n      sub\n      dup2\n      add\n      swap1\n      tag_8\n      swap2\n      swap1\n      tag_9\n      jump\t// in\n    tag_8:\n      tag_10\n      jump\t// in\n    tag_7:\n      mload(0x40)\n      tag_11\n      swap2\n      swap1\n      tag_12\n      jump\t// in\n    tag_11:\n      mload(0x40)\n      dup1\n      swap2\n      sub\n      swap1\n      return\n        /* \"calculator.sol\":188:287  function substract(int256 a, int256 b) public pure returns (int256) {... */\n    tag_4:\n      tag_13\n      0x04\n      dup1\n      calldatasize\n      sub\n      dup2\n      add\n      swap1\n      tag_14\n      swap2\n      swap1\n      tag_9\n      jump\t// in\n    tag_14:\n      tag_15\n      jump\t// in\n    tag_13:\n      mload(0x40)\n      tag_16\n      swap2\n      swap1\n      tag_12\n      jump\t// in\n    tag_16:\n      mload(0x40)\n      dup1\n      swap2\n      sub\n      swap1\n      return\n        /* \"calculator.sol\":87:180  function add(int256 a, int256 b) public pure returns (int256) {... */\n    tag_5:\n      tag_17\n      0x04\n      dup1\n      calldatasize\n      sub\n      dup2\n      add\n      swap1\n      tag_18\n      swap2\n      swap1\n      tag_9\n      jump\t// in\n    tag_18:\n      tag_19\n      jump\t// in\n    tag_17:\n      mload(0x40)\n      tag_20\n      swap2\n      swap1\n      tag_12\n      jump\t// in\n    tag_20:\n      mload(0x40)\n      dup1\n      swap2\n      sub\n      swap1\n      return\n        /* \"calculator.sol\":401:555  function divide(int256 a , int256 b) public pure returns (int256) {... */\n    tag_6:\n      tag_21\n      0x04\n      dup1\n      calldatasize\n      sub\n      dup2\n      add\n      swap1\n      tag_22\n      swap2\n      swap1\n      tag_9\n      jump\t// in\n    tag_22:\n      tag_23\n      jump\t// in\n    tag_21:\n      mload(0x40)\n      tag_24\n      swap2\n      swap1\n      tag_12\n      jump\t// in\n    tag_24:\n      mload(0x40)\n      dup1\n      swap2\n      sub\n      swap1\n      return\n        /* \"calculator.sol\":295:393  function multiply(int256 a, int256 b) public pure returns (int256) {... */\n    tag_10:\n        /* \"calculator.sol\":354:360  int256 */\n      0x00\n        /* \"calculator.sol\":384:385  b */\n      dup2\n        /* \"calculator.sol\":380:381  a */\n      dup4\n        /* \"calculator.sol\":380:385  a * b */\n      tag_26\n      swap2\n      swap1\n      tag_27\n      jump\t// in\n    tag_26:\n        /* \"calculator.sol\":373:385  return a * b */\n      swap1\n      pop\n        /* \"calculator.sol\":295:393  function multiply(int256 a, int256 b) public pure returns (int256) {... */\n      swap3\n      swap2\n      pop\n      pop\n      jump\t// out\n        /* \"calculator.sol\":188:287  function substract(int256 a, int256 b) public pure returns (int256) {... */\n    tag_15:\n        /* \"calculator.sol\":248:254  int256 */\n      0x00\n        /* \"calculator.sol\":278:279  b */\n      dup2\n        /* \"calculator.sol\":274:275  a */\n      dup4\n        /* \"calculator.sol\":274:279  a - b */\n      tag_29\n      swap2\n      swap1\n      tag_30\n      jump\t// in\n    tag_29:\n        /* \"calculator.sol\":267:279  return a - b */\n      swap1\n      pop\n        /* \"calculator.sol\":188:287  function substract(int256 a, int256 b) public pure returns (int256) {... */\n      swap3\n      swap2\n      pop\n      pop\n      jump\t// out\n        /* \"calculator.sol\":87:180  function add(int256 a, int256 b) public pure returns (int256) {... */\n    tag_19:\n        /* \"calculator.sol\":141:147  int256 */\n      0x00\n        /* \"calculator.sol\":171:172  b */\n      dup2\n        /* \"calculator.sol\":167:168  a */\n      dup4\n        /* \"calculator.sol\":167:172  a + b */\n      tag_32\n      swap2\n      swap1\n      tag_33\n      jump\t// in\n    tag_32:\n        /* \"calculator.sol\":160:172  return a + b */\n      swap1\n      pop\n        /* \"calculator.sol\":87:180  function add(int256 a, int256 b) public pure returns (int256) {... */\n      swap3\n      swap2\n      pop\n      pop\n      jump\t// out\n        /* \"calculator.sol\":401:555  function divide(int256 a , int256 b) public pure returns (int256) {... */\n    tag_23:\n        /* \"calculator.sol\":459:465  int256 */\n      0x00\n        /* \"calculator.sol\":491:492  0 */\n      dup1\n        /* \"calculator.sol\":486:487  b */\n      dup3\n        /* \"calculator.sol\":486:492  b != 0 */\n      sub\n        /* \"calculator.sol\":478:525  require(b != 0, \"Division by zero not allowed\") */\n      tag_35\n      jumpi\n      mload(0x40)\n      0x08c379a000000000000000000000000000000000000000000000000000000000\n      dup2\n      mstore\n      0x04\n      add\n      tag_36\n      swap1\n      tag_37\n      jump\t// in\n    tag_36:\n      mload(0x40)\n      dup1\n      swap2\n      sub\n      swap1\n      revert\n    tag_35:\n        /* \"calculator.sol\":546:547  b */\n      dup2\n        /* \"calculator.sol\":543:544  a */\n      dup4\n        /* \"calculator.sol\":543:547  a /b */\n      tag_38\n      swap2\n      swap1\n      tag_39\n      jump\t// in\n    tag_38:\n        /* \"calculator.sol\":536:547  return a /b */\n      swap1\n      pop\n        /* \"calculator.sol\":401:555  function divide(int256 a , int256 b) public pure returns (int256) {... */\n      swap3\n      swap2\n      pop\n      pop\n      jump\t// out\n        /* \"#utility.yul\":88:205   */\n    tag_41:\n        /* \"#utility.yul\":197:198   */\n      0x00\n        /* \"#utility.yul\":194:195   */\n      dup1\n        /* \"#utility.yul\":187:199   */\n      revert\n        /* \"#utility.yul\":334:410   */\n    tag_43:\n        /* \"#utility.yul\":370:377   */\n      0x00\n        /* \"#utility.yul\":399:404   */\n      dup2\n        /* \"#utility.yul\":388:404   */\n      swap1\n      pop\n        /* \"#utility.yul\":334:410   */\n      swap2\n      swap1\n      pop\n      jump\t// out\n        /* \"#utility.yul\":416:536   */\n    tag_44:\n        /* \"#utility.yul\":488:511   */\n      tag_58\n        /* \"#utility.yul\":505:510   */\n      dup2\n        /* \"#utility.yul\":488:511   */\n      tag_43\n      jump\t// in\n    tag_58:\n        /* \"#utility.yul\":481:486   */\n      dup2\n        /* \"#utility.yul\":478:512   */\n      eq\n        /* \"#utility.yul\":468:530   */\n      tag_59\n      jumpi\n        /* \"#utility.yul\":526:527   */\n      0x00\n        /* \"#utility.yul\":523:524   */\n      dup1\n        /* \"#utility.yul\":516:528   */\n      revert\n        /* \"#utility.yul\":468:530   */\n    tag_59:\n        /* \"#utility.yul\":416:536   */\n      pop\n      jump\t// out\n        /* \"#utility.yul\":542:679   */\n    tag_45:\n        /* \"#utility.yul\":587:592   */\n      0x00\n        /* \"#utility.yul\":625:631   */\n      dup2\n        /* \"#utility.yul\":612:632   */\n      calldataload\n        /* \"#utility.yul\":603:632   */\n      swap1\n      pop\n        /* \"#utility.yul\":641:673   */\n      tag_61\n        /* \"#utility.yul\":667:672   */\n      dup2\n        /* \"#utility.yul\":641:673   */\n      tag_44\n      jump\t// in\n    tag_61:\n        /* \"#utility.yul\":542:679   */\n      swap3\n      swap2\n      pop\n      pop\n      jump\t// out\n        /* \"#utility.yul\":685:1155   */\n    tag_9:\n        /* \"#utility.yul\":751:757   */\n      0x00\n        /* \"#utility.yul\":759:765   */\n      dup1\n        /* \"#utility.yul\":808:810   */\n      0x40\n        /* \"#utility.yul\":796:805   */\n      dup4\n        /* \"#utility.yul\":787:794   */\n      dup6\n        /* \"#utility.yul\":783:806   */\n      sub\n        /* \"#utility.yul\":779:811   */\n      slt\n        /* \"#utility.yul\":776:895   */\n      iszero\n      tag_63\n      jumpi\n        /* \"#utility.yul\":814:893   */\n      tag_64\n      tag_41\n      jump\t// in\n    tag_64:\n        /* \"#utility.yul\":776:895   */\n    tag_63:\n        /* \"#utility.yul\":934:935   */\n      0x00\n        /* \"#utility.yul\":959:1011   */\n      tag_65\n        /* \"#utility.yul\":1003:1010   */\n      dup6\n        /* \"#utility.yul\":994:1000   */\n      dup3\n        /* \"#utility.yul\":983:992   */\n      dup7\n        /* \"#utility.yul\":979:1001   */\n      add\n        /* \"#utility.yul\":959:1011   */\n      tag_45\n      jump\t// in\n    tag_65:\n        /* \"#utility.yul\":949:1011   */\n      swap3\n      pop\n        /* \"#utility.yul\":905:1021   */\n      pop\n        /* \"#utility.yul\":1060:1062   */\n      0x20\n        /* \"#utility.yul\":1086:1138   */\n      tag_66\n        /* \"#utility.yul\":1130:1137   */\n      dup6\n        /* \"#utility.yul\":1121:1127   */\n      dup3\n        /* \"#utility.yul\":1110:1119   */\n      dup7\n        /* \"#utility.yul\":1106:1128   */\n      add\n        /* \"#utility.yul\":1086:1138   */\n      tag_45\n      jump\t// in\n    tag_66:\n        /* \"#utility.yul\":1076:1138   */\n      swap2\n      pop\n        /* \"#utility.yul\":1031:1148   */\n      pop\n        /* \"#utility.yul\":685:1155   */\n      swap3\n      pop\n      swap3\n      swap1\n      pop\n      jump\t// out\n        /* \"#utility.yul\":1161:1276   */\n    tag_46:\n        /* \"#utility.yul\":1246:1269   */\n      tag_68\n        /* \"#utility.yul\":1263:1268   */\n      dup2\n        /* \"#utility.yul\":1246:1269   */\n      tag_43\n      jump\t// in\n    tag_68:\n        /* \"#utility.yul\":1241:1244   */\n      dup3\n        /* \"#utility.yul\":1234:1270   */\n      mstore\n        /* \"#utility.yul\":1161:1276   */\n      pop\n      pop\n      jump\t// out\n        /* \"#utility.yul\":1282:1500   */\n    tag_12:\n        /* \"#utility.yul\":1373:1377   */\n      0x00\n        /* \"#utility.yul\":1411:1413   */\n      0x20\n        /* \"#utility.yul\":1400:1409   */\n      dup3\n        /* \"#utility.yul\":1396:1414   */\n      add\n        /* \"#utility.yul\":1388:1414   */\n      swap1\n      pop\n        /* \"#utility.yul\":1424:1493   */\n      tag_70\n        /* \"#utility.yul\":1490:1491   */\n      0x00\n        /* \"#utility.yul\":1479:1488   */\n      dup4\n        /* \"#utility.yul\":1475:1492   */\n      add\n        /* \"#utility.yul\":1466:1472   */\n      dup5\n        /* \"#utility.yul\":1424:1493   */\n      tag_46\n      jump\t// in\n    tag_70:\n        /* \"#utility.yul\":1282:1500   */\n      swap3\n      swap2\n      pop\n      pop\n      jump\t// out\n        /* \"#utility.yul\":1506:1686   */\n    tag_47:\n        /* \"#utility.yul\":1554:1631   */\n      0x4e487b7100000000000000000000000000000000000000000000000000000000\n        /* \"#utility.yul\":1551:1552   */\n      0x00\n        /* \"#utility.yul\":1544:1632   */\n      mstore\n        /* \"#utility.yul\":1651:1655   */\n      0x11\n        /* \"#utility.yul\":1648:1649   */\n      0x04\n        /* \"#utility.yul\":1641:1656   */\n      mstore\n        /* \"#utility.yul\":1675:1679   */\n      0x24\n        /* \"#utility.yul\":1672:1673   */\n      0x00\n        /* \"#utility.yul\":1665:1680   */\n      revert\n        /* \"#utility.yul\":1692:2248   */\n    tag_27:\n        /* \"#utility.yul\":1731:1738   */\n      0x00\n        /* \"#utility.yul\":1754:1773   */\n      tag_73\n        /* \"#utility.yul\":1771:1772   */\n      dup3\n        /* \"#utility.yul\":1754:1773   */\n      tag_43\n      jump\t// in\n    tag_73:\n        /* \"#utility.yul\":1749:1773   */\n      swap2\n      pop\n        /* \"#utility.yul\":1787:1806   */\n      tag_74\n        /* \"#utility.yul\":1804:1805   */\n      dup4\n        /* \"#utility.yul\":1787:1806   */\n      tag_43\n      jump\t// in\n    tag_74:\n        /* \"#utility.yul\":1782:1806   */\n      swap3\n      pop\n        /* \"#utility.yul\":1841:1842   */\n      dup3\n        /* \"#utility.yul\":1838:1839   */\n      dup3\n        /* \"#utility.yul\":1834:1843   */\n      mul\n        /* \"#utility.yul\":1863:1892   */\n      tag_75\n        /* \"#utility.yul\":1880:1891   */\n      dup2\n        /* \"#utility.yul\":1863:1892   */\n      tag_43\n      jump\t// in\n    tag_75:\n        /* \"#utility.yul\":1852:1892   */\n      swap2\n      pop\n        /* \"#utility.yul\":1950:2016   */\n      0x8000000000000000000000000000000000000000000000000000000000000000\n        /* \"#utility.yul\":1947:1948   */\n      dup5\n        /* \"#utility.yul\":1944:2017   */\n      eq\n        /* \"#utility.yul\":1940:1941   */\n      0x00\n        /* \"#utility.yul\":1937:1938   */\n      dup5\n        /* \"#utility.yul\":1933:1942   */\n      slt\n        /* \"#utility.yul\":1929:2018   */\n      and\n        /* \"#utility.yul\":1926:2041   */\n      iszero\n      tag_76\n      jumpi\n        /* \"#utility.yul\":2021:2039   */\n      tag_77\n      tag_47\n      jump\t// in\n    tag_77:\n        /* \"#utility.yul\":1926:2041   */\n    tag_76:\n        /* \"#utility.yul\":2191:2192   */\n      dup3\n        /* \"#utility.yul\":2182:2189   */\n      dup3\n        /* \"#utility.yul\":2177:2193   */\n      sdiv\n        /* \"#utility.yul\":2174:2175   */\n      dup5\n        /* \"#utility.yul\":2171:2194   */\n      eq\n        /* \"#utility.yul\":2151:2152   */\n      dup4\n        /* \"#utility.yul\":2144:2153   */\n      iszero\n        /* \"#utility.yul\":2124:2208   */\n      or\n        /* \"#utility.yul\":2101:2241   */\n      tag_78\n      jumpi\n        /* \"#utility.yul\":2221:2239   */\n      tag_79\n      tag_47\n      jump\t// in\n    tag_79:\n        /* \"#utility.yul\":2101:2241   */\n    tag_78:\n        /* \"#utility.yul\":1739:2248   */\n      pop\n        /* \"#utility.yul\":1692:2248   */\n      swap3\n      swap2\n      pop\n      pop\n      jump\t// out\n        /* \"#utility.yul\":2254:2626   */\n    tag_30:\n        /* \"#utility.yul\":2293:2297   */\n      0x00\n        /* \"#utility.yul\":2313:2332   */\n      tag_81\n        /* \"#utility.yul\":2330:2331   */\n      dup3\n        /* \"#utility.yul\":2313:2332   */\n      tag_43\n      jump\t// in\n    tag_81:\n        /* \"#utility.yul\":2308:2332   */\n      swap2\n      pop\n        /* \"#utility.yul\":2346:2365   */\n      tag_82\n        /* \"#utility.yul\":2363:2364   */\n      dup4\n        /* \"#utility.yul\":2346:2365   */\n      tag_43\n      jump\t// in\n    tag_82:\n        /* \"#utility.yul\":2341:2365   */\n      swap3\n      pop\n        /* \"#utility.yul\":2389:2390   */\n      dup3\n        /* \"#utility.yul\":2386:2387   */\n      dup3\n        /* \"#utility.yul\":2382:2391   */\n      sub\n        /* \"#utility.yul\":2374:2391   */\n      swap1\n      pop\n        /* \"#utility.yul\":2583:2584   */\n      dup2\n        /* \"#utility.yul\":2577:2581   */\n      dup2\n        /* \"#utility.yul\":2573:2585   */\n      slt\n        /* \"#utility.yul\":2569:2570   */\n      0x00\n        /* \"#utility.yul\":2566:2567   */\n      dup5\n        /* \"#utility.yul\":2562:2571   */\n      slt\n        /* \"#utility.yul\":2558:2586   */\n      and\n        /* \"#utility.yul\":2541:2542   */\n      dup3\n        /* \"#utility.yul\":2535:2539   */\n      dup3\n        /* \"#utility.yul\":2531:2543   */\n      sgt\n        /* \"#utility.yul\":2526:2527   */\n      0x00\n        /* \"#utility.yul\":2523:2524   */\n      dup6\n        /* \"#utility.yul\":2519:2528   */\n      slt\n        /* \"#utility.yul\":2512:2529   */\n      iszero\n        /* \"#utility.yul\":2508:2544   */\n      and\n        /* \"#utility.yul\":2492:2596   */\n      or\n        /* \"#utility.yul\":2489:2619   */\n      iszero\n      tag_83\n      jumpi\n        /* \"#utility.yul\":2599:2617   */\n      tag_84\n      tag_47\n      jump\t// in\n    tag_84:\n        /* \"#utility.yul\":2489:2619   */\n    tag_83:\n        /* \"#utility.yul\":2254:2626   */\n      swap3\n      swap2\n      pop\n      pop\n      jump\t// out\n        /* \"#utility.yul\":2632:3007   */\n    tag_33:\n        /* \"#utility.yul\":2671:2674   */\n      0x00\n        /* \"#utility.yul\":2690:2709   */\n      tag_86\n        /* \"#utility.yul\":2707:2708   */\n      dup3\n        /* \"#utility.yul\":2690:2709   */\n      tag_43\n      jump\t// in\n    tag_86:\n        /* \"#utility.yul\":2685:2709   */\n      swap2\n      pop\n        /* \"#utility.yul\":2723:2742   */\n      tag_87\n        /* \"#utility.yul\":2740:2741   */\n      dup4\n        /* \"#utility.yul\":2723:2742   */\n      tag_43\n      jump\t// in\n    tag_87:\n        /* \"#utility.yul\":2718:2742   */\n      swap3\n      pop\n        /* \"#utility.yul\":2765:2766   */\n      dup3\n        /* \"#utility.yul\":2762:2763   */\n      dup3\n        /* \"#utility.yul\":2758:2767   */\n      add\n        /* \"#utility.yul\":2751:2767   */\n      swap1\n      pop\n        /* \"#utility.yul\":2963:2964   */\n      dup3\n        /* \"#utility.yul\":2958:2961   */\n      dup2\n        /* \"#utility.yul\":2954:2965   */\n      slt\n        /* \"#utility.yul\":2947:2966   */\n      iszero\n        /* \"#utility.yul\":2943:2944   */\n      0x00\n        /* \"#utility.yul\":2940:2941   */\n      dup4\n        /* \"#utility.yul\":2936:2945   */\n      slt\n        /* \"#utility.yul\":2932:2967   */\n      and\n        /* \"#utility.yul\":2915:2916   */\n      dup4\n        /* \"#utility.yul\":2910:2913   */\n      dup3\n        /* \"#utility.yul\":2906:2917   */\n      slt\n        /* \"#utility.yul\":2901:2902   */\n      0x00\n        /* \"#utility.yul\":2898:2899   */\n      dup5\n        /* \"#utility.yul\":2894:2903   */\n      slt\n        /* \"#utility.yul\":2887:2904   */\n      iszero\n        /* \"#utility.yul\":2883:2918   */\n      and\n        /* \"#utility.yul\":2867:2977   */\n      or\n        /* \"#utility.yul\":2864:3000   */\n      iszero\n      tag_88\n      jumpi\n        /* \"#utility.yul\":2980:2998   */\n      tag_89\n      tag_47\n      jump\t// in\n    tag_89:\n        /* \"#utility.yul\":2864:3000   */\n    tag_88:\n        /* \"#utility.yul\":2632:3007   */\n      swap3\n      swap2\n      pop\n      pop\n      jump\t// out\n        /* \"#utility.yul\":3013:3182   */\n    tag_48:\n        /* \"#utility.yul\":3097:3108   */\n      0x00\n        /* \"#utility.yul\":3131:3137   */\n      dup3\n        /* \"#utility.yul\":3126:3129   */\n      dup3\n        /* \"#utility.yul\":3119:3138   */\n      mstore\n        /* \"#utility.yul\":3171:3175   */\n      0x20\n        /* \"#utility.yul\":3166:3169   */\n      dup3\n        /* \"#utility.yul\":3162:3176   */\n      add\n        /* \"#utility.yul\":3147:3176   */\n      swap1\n      pop\n        /* \"#utility.yul\":3013:3182   */\n      swap3\n      swap2\n      pop\n      pop\n      jump\t// out\n        /* \"#utility.yul\":3188:3366   */\n    tag_49:\n        /* \"#utility.yul\":3328:3358   */\n      0x4469766973696f6e206279207a65726f206e6f7420616c6c6f77656400000000\n        /* \"#utility.yul\":3324:3325   */\n      0x00\n        /* \"#utility.yul\":3316:3322   */\n      dup3\n        /* \"#utility.yul\":3312:3326   */\n      add\n        /* \"#utility.yul\":3305:3359   */\n      mstore\n        /* \"#utility.yul\":3188:3366   */\n      pop\n      jump\t// out\n        /* \"#utility.yul\":3372:3738   */\n    tag_50:\n        /* \"#utility.yul\":3514:3517   */\n      0x00\n        /* \"#utility.yul\":3535:3602   */\n      tag_93\n        /* \"#utility.yul\":3599:3601   */\n      0x1c\n        /* \"#utility.yul\":3594:3597   */\n      dup4\n        /* \"#utility.yul\":3535:3602   */\n      tag_48\n      jump\t// in\n    tag_93:\n        /* \"#utility.yul\":3528:3602   */\n      swap2\n      pop\n        /* \"#utility.yul\":3611:3704   */\n      tag_94\n        /* \"#utility.yul\":3700:3703   */\n      dup3\n        /* \"#utility.yul\":3611:3704   */\n      tag_49\n      jump\t// in\n    tag_94:\n        /* \"#utility.yul\":3729:3731   */\n      0x20\n        /* \"#utility.yul\":3724:3727   */\n      dup3\n        /* \"#utility.yul\":3720:3732   */\n      add\n        /* \"#utility.yul\":3713:3732   */\n      swap1\n      pop\n        /* \"#utility.yul\":3372:3738   */\n      swap2\n      swap1\n      pop\n      jump\t// out\n        /* \"#utility.yul\":3744:4163   */\n    tag_37:\n        /* \"#utility.yul\":3910:3914   */\n      0x00\n        /* \"#utility.yul\":3948:3950   */\n      0x20\n        /* \"#utility.yul\":3937:3946   */\n      dup3\n        /* \"#utility.yul\":3933:3951   */\n      add\n        /* \"#utility.yul\":3925:3951   */\n      swap1\n      pop\n        /* \"#utility.yul\":3997:4006   */\n      dup2\n        /* \"#utility.yul\":3991:3995   */\n      dup2\n        /* \"#utility.yul\":3987:4007   */\n      sub\n        /* \"#utility.yul\":3983:3984   */\n      0x00\n        /* \"#utility.yul\":3972:3981   */\n      dup4\n        /* \"#utility.yul\":3968:3985   */\n      add\n        /* \"#utility.yul\":3961:4008   */\n      mstore\n        /* \"#utility.yul\":4025:4156   */\n      tag_96\n        /* \"#utility.yul\":4151:4155   */\n      dup2\n        /* \"#utility.yul\":4025:4156   */\n      tag_50\n      jump\t// in\n    tag_96:\n        /* \"#utility.yul\":4017:4156   */\n      swap1\n      pop\n        /* \"#utility.yul\":3744:4163   */\n      swap2\n      swap1\n      pop\n      jump\t// out\n        /* \"#utility.yul\":4169:4349   */\n    tag_51:\n        /* \"#utility.yul\":4217:4294   */\n      0x4e487b7100000000000000000000000000000000000000000000000000000000\n        /* \"#utility.yul\":4214:4215   */\n      0x00\n        /* \"#utility.yul\":4207:4295   */\n      mstore\n        /* \"#utility.yul\":4314:4318   */\n      0x12\n        /* \"#utility.yul\":4311:4312   */\n      0x04\n        /* \"#utility.yul\":4304:4319   */\n      mstore\n        /* \"#utility.yul\":4338:4342   */\n      0x24\n        /* \"#utility.yul\":4335:4336   */\n      0x00\n        /* \"#utility.yul\":4328:4343   */\n      revert\n        /* \"#utility.yul\":4355:4740   */\n    tag_39:\n        /* \"#utility.yul\":4394:4395   */\n      0x00\n        /* \"#utility.yul\":4411:4430   */\n      tag_99\n        /* \"#utility.yul\":4428:4429   */\n      dup3\n        /* \"#utility.yul\":4411:4430   */\n      tag_43\n      jump\t// in\n    tag_99:\n        /* \"#utility.yul\":4406:4430   */\n      swap2\n      pop\n        /* \"#utility.yul\":4444:4463   */\n      tag_100\n        /* \"#utility.yul\":4461:4462   */\n      dup4\n        /* \"#utility.yul\":4444:4463   */\n      tag_43\n      jump\t// in\n    tag_100:\n        /* \"#utility.yul\":4439:4463   */\n      swap3\n      pop\n        /* \"#utility.yul\":4482:4483   */\n      dup3\n        /* \"#utility.yul\":4472:4507   */\n      tag_101\n      jumpi\n        /* \"#utility.yul\":4487:4505   */\n      tag_102\n      tag_51\n      jump\t// in\n    tag_102:\n        /* \"#utility.yul\":4472:4507   */\n    tag_101:\n        /* \"#utility.yul\":4673:4674   */\n      0x01\n        /* \"#utility.yul\":4670:4671   */\n      0x00\n        /* \"#utility.yul\":4666:4675   */\n      sub\n        /* \"#utility.yul\":4663:4664   */\n      dup4\n        /* \"#utility.yul\":4660:4676   */\n      eq\n        /* \"#utility.yul\":4579:4645   */\n      0x8000000000000000000000000000000000000000000000000000000000000000\n        /* \"#utility.yul\":4576:4577   */\n      dup4\n        /* \"#utility.yul\":4573:4646   */\n      eq\n        /* \"#utility.yul\":4556:4686   */\n      and\n        /* \"#utility.yul\":4553:4709   */\n      iszero\n      tag_103\n      jumpi\n        /* \"#utility.yul\":4689:4707   */\n      tag_104\n      tag_47\n      jump\t// in\n    tag_104:\n        /* \"#utility.yul\":4553:4709   */\n    tag_103:\n        /* \"#utility.yul\":4732:4733   */\n      dup3\n        /* \"#utility.yul\":4729:4730   */\n      dup3\n        /* \"#utility.yul\":4724:4734   */\n      sdiv\n        /* \"#utility.yul\":4719:4734   */\n      swap1\n      pop\n        /* \"#utility.yul\":4355:4740   */\n      swap3\n      swap2\n      pop\n      pop\n      jump\t// out\n\n    auxdata: 0xa26469706673582212209b66133e6c16f566b35ce0be005657f6acad613b19d4b8f0d40964039817237264736f6c634300081a0033\n}\n",
				"bytecode": {
					"linkReferences": {},
					"object": "6080604052348015600e575f80fd5b506104a88061001c5f395ff3fe608060405234801561000f575f80fd5b506004361061004a575f3560e01c80633c4308a81461004e578063700270051461007e578063a5f3c23b146100ae578063f5984236146100de575b5f80fd5b610068600480360381019061006391906101db565b61010e565b6040516100759190610228565b60405180910390f35b610098600480360381019061009391906101db565b610123565b6040516100a59190610228565b60405180910390f35b6100c860048036038101906100c391906101db565b610138565b6040516100d59190610228565b60405180910390f35b6100f860048036038101906100f391906101db565b61014d565b6040516101059190610228565b60405180910390f35b5f818361011b919061026e565b905092915050565b5f818361013091906102e4565b905092915050565b5f81836101459190610324565b905092915050565b5f808203610190576040517f08c379a0000000000000000000000000000000000000000000000000000000008152600401610187906103bf565b60405180910390fd5b818361019c919061040a565b905092915050565b5f80fd5b5f819050919050565b6101ba816101a8565b81146101c4575f80fd5b50565b5f813590506101d5816101b1565b92915050565b5f80604083850312156101f1576101f06101a4565b5b5f6101fe858286016101c7565b925050602061020f858286016101c7565b9150509250929050565b610222816101a8565b82525050565b5f60208201905061023b5f830184610219565b92915050565b7f4e487b71000000000000000000000000000000000000000000000000000000005f52601160045260245ffd5b5f610278826101a8565b9150610283836101a8565b9250828202610291816101a8565b91507f800000000000000000000000000000000000000000000000000000000000000084145f841216156102c8576102c7610241565b5b82820584148315176102dd576102dc610241565b5b5092915050565b5f6102ee826101a8565b91506102f9836101a8565b925082820390508181125f8412168282135f85121516171561031e5761031d610241565b5b92915050565b5f61032e826101a8565b9150610339836101a8565b92508282019050828112155f8312168382125f84121516171561035f5761035e610241565b5b92915050565b5f82825260208201905092915050565b7f4469766973696f6e206279207a65726f206e6f7420616c6c6f776564000000005f82015250565b5f6103a9601c83610365565b91506103b482610375565b602082019050919050565b5f6020820190508181035f8301526103d68161039d565b9050919050565b7f4e487b71000000000000000000000000000000000000000000000000000000005f52601260045260245ffd5b5f610414826101a8565b915061041f836101a8565b92508261042f5761042e6103dd565b5b60015f0383147f80000000000000000000000000000000000000000000000000000000000000008314161561046757610466610241565b5b82820590509291505056fea26469706673582212209b66133e6c16f566b35ce0be005657f6acad613b19d4b8f0d40964039817237264736f6c634300081a0033",
					"opcodes": "PUSH1 0x80 PUSH1 0x40 MSTORE CALLVALUE DUP1 ISZERO PUSH1 0xE JUMPI PUSH0 DUP1 REVERT JUMPDEST POP PUSH2 0x4A8 DUP1 PUSH2 0x1C PUSH0 CODECOPY PUSH0 RETURN INVALID PUSH1 0x80 PUSH1 0x40 MSTORE CALLVALUE DUP1 ISZERO PUSH2 0xF JUMPI PUSH0 DUP1 REVERT JUMPDEST POP PUSH1 0x4 CALLDATASIZE LT PUSH2 0x4A JUMPI PUSH0 CALLDATALOAD PUSH1 0xE0 SHR DUP1 PUSH4 0x3C4308A8 EQ PUSH2 0x4E JUMPI DUP1 PUSH4 0x70027005 EQ PUSH2 0x7E JUMPI DUP1 PUSH4 0xA5F3C23B EQ PUSH2 0xAE JUMPI DUP1 PUSH4 0xF5984236 EQ PUSH2 0xDE JUMPI JUMPDEST PUSH0 DUP1 REVERT JUMPDEST PUSH2 0x68 PUSH1 0x4 DUP1 CALLDATASIZE SUB DUP2 ADD SWAP1 PUSH2 0x63 SWAP2 SWAP1 PUSH2 0x1DB JUMP JUMPDEST PUSH2 0x10E JUMP JUMPDEST PUSH1 0x40 MLOAD PUSH2 0x75 SWAP2 SWAP1 PUSH2 0x228 JUMP JUMPDEST PUSH1 0x40 MLOAD DUP1 SWAP2 SUB SWAP1 RETURN JUMPDEST PUSH2 0x98 PUSH1 0x4 DUP1 CALLDATASIZE SUB DUP2 ADD SWAP1 PUSH2 0x93 SWAP2 SWAP1 PUSH2 0x1DB JUMP JUMPDEST PUSH2 0x123 JUMP JUMPDEST PUSH1 0x40 MLOAD PUSH2 0xA5 SWAP2 SWAP1 PUSH2 0x228 JUMP JUMPDEST PUSH1 0x40 MLOAD DUP1 SWAP2 SUB SWAP1 RETURN JUMPDEST PUSH2 0xC8 PUSH1 0x4 DUP1 CALLDATASIZE SUB DUP2 ADD SWAP1 PUSH2 0xC3 SWAP2 SWAP1 PUSH2 0x1DB JUMP JUMPDEST PUSH2 0x138 JUMP JUMPDEST PUSH1 0x40 MLOAD PUSH2 0xD5 SWAP2 SWAP1 PUSH2 0x228 JUMP JUMPDEST PUSH1 0x40 MLOAD DUP1 SWAP2 SUB SWAP1 RETURN JUMPDEST PUSH2 0xF8 PUSH1 0x4 DUP1 CALLDATASIZE SUB DUP2 ADD SWAP1 PUSH2 0xF3 SWAP2 SWAP1 PUSH2 0x1DB JUMP JUMPDEST PUSH2 0x14D JUMP JUMPDEST PUSH1 0x40 MLOAD PUSH2 0x105 SWAP2 SWAP1 PUSH2 0x228 JUMP JUMPDEST PUSH1 0x40 MLOAD DUP1 SWAP2 SUB SWAP1 RETURN JUMPDEST PUSH0 DUP2 DUP4 PUSH2 0x11B SWAP2 SWAP1 PUSH2 0x26E JUMP JUMPDEST SWAP1 POP SWAP3 SWAP2 POP POP JUMP JUMPDEST PUSH0 DUP2 DUP4 PUSH2 0x130 SWAP2 SWAP1 PUSH2 0x2E4 JUMP JUMPDEST SWAP1 POP SWAP3 SWAP2 POP POP JUMP JUMPDEST PUSH0 DUP2 DUP4 PUSH2 0x145 SWAP2 SWAP1 PUSH2 0x324 JUMP JUMPDEST SWAP1 POP SWAP3 SWAP2 POP POP JUMP JUMPDEST PUSH0 DUP1 DUP3 SUB PUSH2 0x190 JUMPI PUSH1 0x40 MLOAD PUSH32 0x8C379A000000000000000000000000000000000000000000000000000000000 DUP2 MSTORE PUSH1 0x4 ADD PUSH2 0x187 SWAP1 PUSH2 0x3BF JUMP JUMPDEST PUSH1 0x40 MLOAD DUP1 SWAP2 SUB SWAP1 REVERT JUMPDEST DUP2 DUP4 PUSH2 0x19C SWAP2 SWAP1 PUSH2 0x40A JUMP JUMPDEST SWAP1 POP SWAP3 SWAP2 POP POP JUMP JUMPDEST PUSH0 DUP1 REVERT JUMPDEST PUSH0 DUP2 SWAP1 POP SWAP2 SWAP1 POP JUMP JUMPDEST PUSH2 0x1BA DUP2 PUSH2 0x1A8 JUMP JUMPDEST DUP2 EQ PUSH2 0x1C4 JUMPI PUSH0 DUP1 REVERT JUMPDEST POP JUMP JUMPDEST PUSH0 DUP2 CALLDATALOAD SWAP1 POP PUSH2 0x1D5 DUP2 PUSH2 0x1B1 JUMP JUMPDEST SWAP3 SWAP2 POP POP JUMP JUMPDEST PUSH0 DUP1 PUSH1 0x40 DUP4 DUP6 SUB SLT ISZERO PUSH2 0x1F1 JUMPI PUSH2 0x1F0 PUSH2 0x1A4 JUMP JUMPDEST JUMPDEST PUSH0 PUSH2 0x1FE DUP6 DUP3 DUP7 ADD PUSH2 0x1C7 JUMP JUMPDEST SWAP3 POP POP PUSH1 0x20 PUSH2 0x20F DUP6 DUP3 DUP7 ADD PUSH2 0x1C7 JUMP JUMPDEST SWAP2 POP POP SWAP3 POP SWAP3 SWAP1 POP JUMP JUMPDEST PUSH2 0x222 DUP2 PUSH2 0x1A8 JUMP JUMPDEST DUP3 MSTORE POP POP JUMP JUMPDEST PUSH0 PUSH1 0x20 DUP3 ADD SWAP1 POP PUSH2 0x23B PUSH0 DUP4 ADD DUP5 PUSH2 0x219 JUMP JUMPDEST SWAP3 SWAP2 POP POP JUMP JUMPDEST PUSH32 0x4E487B7100000000000000000000000000000000000000000000000000000000 PUSH0 MSTORE PUSH1 0x11 PUSH1 0x4 MSTORE PUSH1 0x24 PUSH0 REVERT JUMPDEST PUSH0 PUSH2 0x278 DUP3 PUSH2 0x1A8 JUMP JUMPDEST SWAP2 POP PUSH2 0x283 DUP4 PUSH2 0x1A8 JUMP JUMPDEST SWAP3 POP DUP3 DUP3 MUL PUSH2 0x291 DUP2 PUSH2 0x1A8 JUMP JUMPDEST SWAP2 POP PUSH32 0x8000000000000000000000000000000000000000000000000000000000000000 DUP5 EQ PUSH0 DUP5 SLT AND ISZERO PUSH2 0x2C8 JUMPI PUSH2 0x2C7 PUSH2 0x241 JUMP JUMPDEST JUMPDEST DUP3 DUP3 SDIV DUP5 EQ DUP4 ISZERO OR PUSH2 0x2DD JUMPI PUSH2 0x2DC PUSH2 0x241 JUMP JUMPDEST JUMPDEST POP SWAP3 SWAP2 POP POP JUMP JUMPDEST PUSH0 PUSH2 0x2EE DUP3 PUSH2 0x1A8 JUMP JUMPDEST SWAP2 POP PUSH2 0x2F9 DUP4 PUSH2 0x1A8 JUMP JUMPDEST SWAP3 POP DUP3 DUP3 SUB SWAP1 POP DUP2 DUP2 SLT PUSH0 DUP5 SLT AND DUP3 DUP3 SGT PUSH0 DUP6 SLT ISZERO AND OR ISZERO PUSH2 0x31E JUMPI PUSH2 0x31D PUSH2 0x241 JUMP JUMPDEST JUMPDEST SWAP3 SWAP2 POP POP JUMP JUMPDEST PUSH0 PUSH2 0x32E DUP3 PUSH2 0x1A8 JUMP JUMPDEST SWAP2 POP PUSH2 0x339 DUP4 PUSH2 0x1A8 JUMP JUMPDEST SWAP3 POP DUP3 DUP3 ADD SWAP1 POP DUP3 DUP2 SLT ISZERO PUSH0 DUP4 SLT AND DUP4 DUP3 SLT PUSH0 DUP5 SLT ISZERO AND OR ISZERO PUSH2 0x35F JUMPI PUSH2 0x35E PUSH2 0x241 JUMP JUMPDEST JUMPDEST SWAP3 SWAP2 POP POP JUMP JUMPDEST PUSH0 DUP3 DUP3 MSTORE PUSH1 0x20 DUP3 ADD SWAP1 POP SWAP3 SWAP2 POP POP JUMP JUMPDEST PUSH32 0x4469766973696F6E206279207A65726F206E6F7420616C6C6F77656400000000 PUSH0 DUP3 ADD MSTORE POP JUMP JUMPDEST PUSH0 PUSH2 0x3A9 PUSH1 0x1C DUP4 PUSH2 0x365 JUMP JUMPDEST SWAP2 POP PUSH2 0x3B4 DUP3 PUSH2 0x375 JUMP JUMPDEST PUSH1 0x20 DUP3 ADD SWAP1 POP SWAP2 SWAP1 POP JUMP JUMPDEST PUSH0 PUSH1 0x20 DUP3 ADD SWAP1 POP DUP2 DUP2 SUB PUSH0 DUP4 ADD MSTORE PUSH2 0x3D6 DUP2 PUSH2 0x39D JUMP JUMPDEST SWAP1 POP SWAP2 SWAP1 POP JUMP JUMPDEST PUSH32 0x4E487B7100000000000000000000000000000000000000000000000000000000 PUSH0 MSTORE PUSH1 0x12 PUSH1 0x4 MSTORE PUSH1 0x24 PUSH0 REVERT JUMPDEST PUSH0 PUSH2 0x414 DUP3 PUSH2 0x1A8 JUMP JUMPDEST SWAP2 POP PUSH2 0x41F DUP4 PUSH2 0x1A8 JUMP JUMPDEST SWAP3 POP DUP3 PUSH2 0x42F JUMPI PUSH2 0x42E PUSH2 0x3DD JUMP JUMPDEST JUMPDEST PUSH1 0x1 PUSH0 SUB DUP4 EQ PUSH32 0x8000000000000000000000000000000000000000000000000000000000000000 DUP4 EQ AND ISZERO PUSH2 0x467 JUMPI PUSH2 0x466 PUSH2 0x241 JUMP JUMPDEST JUMPDEST DUP3 DUP3 SDIV SWAP1 POP SWAP3 SWAP2 POP POP JUMP INVALID LOG2 PUSH5 0x6970667358 0x22 SLT KECCAK256 SWAP12 PUSH7 0x133E6C16F566B3 TLOAD 0xE0 0xBE STOP JUMP JUMPI 0xF6 0xAC 0xAD PUSH2 0x3B19 0xD4 0xB8 CREATE 0xD4 MULMOD PUSH5 0x398172372 PUSH5 0x736F6C6343 STOP ADDMOD BYTE STOP CALLER "
				},
				"gasEstimates": {
					"creation": {
						"codeDepositCost": "238400",
						"executionCost": "279",
						"totalCost": "238679"
					},
					"external": {
						"add(int256,int256)": "infinite",
						"divide(int256,int256)": "infinite",
						"multiply(int256,int256)": "infinite",
						"substract(int256,int256)": "infinite"
					}
				},
				"methodIdentifiers": {
					"add(int256,int256)": "a5f3c23b",
					"divide(int256,int256)": "f5984236",
					"multiply(int256,int256)": "3c4308a8",
					"substract(int256,int256)": "70027005"
				}
			},
			"storageLayout": {
				"storage": [],
				"types": null
			},
			"userdoc": {
				"kind": "user",
				"methods": {},
				"version": 1
			}
		}
	}
}