{
	"loops.sol": {
		"sumDigits": {
			"abi": [
				{
					"inputs": [
						{
							"internalType": "uint256",
							"name": "n",
							"type": "uint256"
						}
					],
					"name": "sumDigit",
					"outputs": [
						{
							"internalType": "uint256",
							"name": "",
							"type": "uint256"
						}
					],
					"stateMutability": "pure",
					"type": "function"
				}
			],
			"devdoc": {
				"kind": "dev",
				"methods": {},
				"version": 1
			},
			"evm": {
				"assembly": "    /* \"loops.sol\":326:613  contract sumDigits {... */\n  mstore(0x40, 0x80)\n  callvalue\n  dup1\n  iszero\n  tag_1\n  jumpi\n  0x00\n  dup1\n  revert\ntag_1:\n  pop\n  dataSize(sub_0)\n  dup1\n  dataOffset(sub_0)\n  0x00\n  codecopy\n  0x00\n  return\nstop\n\nsub_0: assembly {\n        /* \"loops.sol\":326:613  contract sumDigits {... */\n      mstore(0x40, 0x80)\n      callvalue\n      dup1\n      iszero\n      tag_1\n      jumpi\n      0x00\n      dup1\n      revert\n    tag_1:\n      pop\n      jumpi(tag_2, lt(calldatasize, 0x04))\n      shr(0xe0, calldataload(0x00))\n      dup1\n      0xd918cbb0\n      eq\n      tag_3\n      jumpi\n    tag_2:\n      0x00\n      dup1\n      revert\n        /* \"loops.sol\":352:610  function sumDigit(uint n) public pure returns (uint) {... */\n    tag_3:\n      tag_4\n      0x04\n      dup1\n      calldatasize\n      sub\n      dup2\n      add\n      swap1\n      tag_5\n      swap2\n      swap1\n      tag_6\n      jump\t// in\n    tag_5:\n      tag_7\n      jump\t// in\n    tag_4:\n      mload(0x40)\n      tag_8\n      swap2\n      swap1\n      tag_9\n      jump\t// in\n    tag_8:\n      mload(0x40)\n      dup1\n      swap2\n      sub\n      swap1\n      return\n    tag_7:\n        /* \"loops.sol\":399:403  uint */\n      0x00\n        /* \"loops.sol\":416:424  uint sum */\n      dup1\n        /* \"loops.sol\":427:428  0 */\n      0x00\n        /* \"loops.sol\":416:428  uint sum = 0 */\n      swap1\n      pop\n        /* \"loops.sol\":439:582  while (true) {... */\n    tag_11:\n        /* \"loops.sol\":446:450  true */\n      0x01\n        /* \"loops.sol\":439:582  while (true) {... */\n      iszero\n      tag_12\n      jumpi\n        /* \"loops.sol\":478:480  10 */\n      0x0a\n        /* \"loops.sol\":474:475  n */\n      dup4\n        /* \"loops.sol\":474:480  n % 10 */\n      tag_13\n      swap2\n      swap1\n      tag_14\n      jump\t// in\n    tag_13:\n        /* \"loops.sol\":467:480  sum += n % 10 */\n      dup2\n      tag_15\n      swap2\n      swap1\n      tag_16\n      jump\t// in\n    tag_15:\n      swap1\n      pop\n        /* \"loops.sol\":500:502  10 */\n      0x0a\n        /* \"loops.sol\":495:502  n /= 10 */\n      dup4\n      tag_17\n      swap2\n      swap1\n      tag_18\n      jump\t// in\n    tag_17:\n      swap3\n      pop\n        /* \"loops.sol\":527:528  0 */\n      0x00\n        /* \"loops.sol\":522:523  n */\n      dup4\n        /* \"loops.sol\":522:528  n == 0 */\n      sub\n        /* \"loops.sol\":439:582  while (true) {... */\n      tag_11\n        /* \"loops.sol\":519:571  if(n == 0) {... */\n      jumpi\n        /* \"loops.sol\":439:582  while (true) {... */\n    tag_12:\n        /* \"loops.sol\":599:602  sum */\n      dup1\n        /* \"loops.sol\":592:602  return sum */\n      swap2\n      pop\n      pop\n        /* \"loops.sol\":352:610  function sumDigit(uint n) public pure returns (uint) {... */\n      swap2\n      swap1\n      pop\n      jump\t// out\n        /* \"#utility.yul\":88:205   */\n    tag_21:\n        /* \"#utility.yul\":197:198   */\n      0x00\n        /* \"#utility.yul\":194:195   */\n      dup1\n        /* \"#utility.yul\":187:199   */\n      revert\n        /* \"#utility.yul\":334:411   */\n    tag_23:\n        /* \"#utility.yul\":371:378   */\n      0x00\n        /* \"#utility.yul\":400:405   */\n      dup2\n        /* \"#utility.yul\":389:405   */\n      swap1\n      pop\n        /* \"#utility.yul\":334:411   */\n      swap2\n      swap1\n      pop\n      jump\t// out\n        /* \"#utility.yul\":417:539   */\n    tag_24:\n        /* \"#utility.yul\":490:514   */\n      tag_35\n        /* \"#utility.yul\":508:513   */\n      dup2\n        /* \"#utility.yul\":490:514   */\n      tag_23\n      jump\t// in\n    tag_35:\n        /* \"#utility.yul\":483:488   */\n      dup2\n        /* \"#utility.yul\":480:515   */\n      eq\n        /* \"#utility.yul\":470:533   */\n      tag_36\n      jumpi\n        /* \"#utility.yul\":529:530   */\n      0x00\n        /* \"#utility.yul\":526:527   */\n      dup1\n        /* \"#utility.yul\":519:531   */\n      revert\n        /* \"#utility.yul\":470:533   */\n    tag_36:\n        /* \"#utility.yul\":417:539   */\n      pop\n      jump\t// out\n        /* \"#utility.yul\":545:684   */\n    tag_25:\n        /* \"#utility.yul\":591:596   */\n      0x00\n        /* \"#utility.yul\":629:635   */\n      dup2\n        /* \"#utility.yul\":616:636   */\n      calldataload\n        /* \"#utility.yul\":607:636   */\n      swap1\n      pop\n        /* \"#utility.yul\":645:678   */\n      tag_38\n        /* \"#utility.yul\":672:677   */\n      dup2\n        /* \"#utility.yul\":645:678   */\n      tag_24\n      jump\t// in\n    tag_38:\n        /* \"#utility.yul\":545:684   */\n      swap3\n      swap2\n      pop\n      pop\n      jump\t// out\n        /* \"#utility.yul\":690:1019   */\n    tag_6:\n        /* \"#utility.yul\":749:755   */\n      0x00\n        /* \"#utility.yul\":798:800   */\n      0x20\n        /* \"#utility.yul\":786:795   */\n      dup3\n        /* \"#utility.yul\":777:784   */\n      dup5\n        /* \"#utility.yul\":773:796   */\n      sub\n        /* \"#utility.yul\":769:801   */\n      slt\n        /* \"#utility.yul\":766:885   */\n      iszero\n      tag_40\n      jumpi\n        /* \"#utility.yul\":804:883   */\n      tag_41\n      tag_21\n      jump\t// in\n    tag_41:\n        /* \"#utility.yul\":766:885   */\n    tag_40:\n        /* \"#utility.yul\":924:925   */\n      0x00\n        /* \"#utility.yul\":949:1002   */\n      tag_42\n        /* \"#utility.yul\":994:1001   */\n      dup5\n        /* \"#utility.yul\":985:991   */\n      dup3\n        /* \"#utility.yul\":974:983   */\n      dup6\n        /* \"#utility.yul\":970:992   */\n      add\n        /* \"#utility.yul\":949:1002   */\n      tag_25\n      jump\t// in\n    tag_42:\n        /* \"#utility.yul\":939:1002   */\n      swap2\n      pop\n        /* \"#utility.yul\":895:1012   */\n      pop\n        /* \"#utility.yul\":690:1019   */\n      swap3\n      swap2\n      pop\n      pop\n      jump\t// out\n        /* \"#utility.yul\":1025:1143   */\n    tag_26:\n        /* \"#utility.yul\":1112:1136   */\n      tag_44\n        /* \"#utility.yul\":1130:1135   */\n      dup2\n        /* \"#utility.yul\":1112:1136   */\n      tag_23\n      jump\t// in\n    tag_44:\n        /* \"#utility.yul\":1107:1110   */\n      dup3\n        /* \"#utility.yul\":1100:1137   */\n      mstore\n        /* \"#utility.yul\":1025:1143   */\n      pop\n      pop\n      jump\t// out\n        /* \"#utility.yul\":1149:1371   */\n    tag_9:\n        /* \"#utility.yul\":1242:1246   */\n      0x00\n        /* \"#utility.yul\":1280:1282   */\n      0x20\n        /* \"#utility.yul\":1269:1278   */\n      dup3\n        /* \"#utility.yul\":1265:1283   */\n      add\n        /* \"#utility.yul\":1257:1283   */\n      swap1\n      pop\n        /* \"#utility.yul\":1293:1364   */\n      tag_46\n        /* \"#utility.yul\":1361:1362   */\n      0x00\n        /* \"#utility.yul\":1350:1359   */\n      dup4\n        /* \"#utility.yul\":1346:1363   */\n      add\n        /* \"#utility.yul\":1337:1343   */\n      dup5\n        /* \"#utility.yul\":1293:1364   */\n      tag_26\n      jump\t// in\n    tag_46:\n        /* \"#utility.yul\":1149:1371   */\n      swap3\n      swap2\n      pop\n      pop\n      jump\t// out\n        /* \"#utility.yul\":1377:1557   */\n    tag_27:\n        /* \"#utility.yul\":1425:1502   */\n      0x4e487b7100000000000000000000000000000000000000000000000000000000\n        /* \"#utility.yul\":1422:1423   */\n      0x00\n        /* \"#utility.yul\":1415:1503   */\n      mstore\n        /* \"#utility.yul\":1522:1526   */\n      0x12\n        /* \"#utility.yul\":1519:1520   */\n      0x04\n        /* \"#utility.yul\":1512:1527   */\n      mstore\n        /* \"#utility.yul\":1546:1550   */\n      0x24\n        /* \"#utility.yul\":1543:1544   */\n      0x00\n        /* \"#utility.yul\":1536:1551   */\n      revert\n        /* \"#utility.yul\":1563:1739   */\n    tag_14:\n        /* \"#utility.yul\":1595:1596   */\n      0x00\n        /* \"#utility.yul\":1612:1632   */\n      tag_49\n        /* \"#utility.yul\":1630:1631   */\n      dup3\n        /* \"#utility.yul\":1612:1632   */\n      tag_23\n      jump\t// in\n    tag_49:\n        /* \"#utility.yul\":1607:1632   */\n      swap2\n      pop\n        /* \"#utility.yul\":1646:1666   */\n      tag_50\n        /* \"#utility.yul\":1664:1665   */\n      dup4\n        /* \"#utility.yul\":1646:1666   */\n      tag_23\n      jump\t// in\n    tag_50:\n        /* \"#utility.yul\":1641:1666   */\n      swap3\n      pop\n        /* \"#utility.yul\":1685:1686   */\n      dup3\n        /* \"#utility.yul\":1675:1710   */\n      tag_51\n      jumpi\n        /* \"#utility.yul\":1690:1708   */\n      tag_52\n      tag_27\n      jump\t// in\n    tag_52:\n        /* \"#utility.yul\":1675:1710   */\n    tag_51:\n        /* \"#utility.yul\":1731:1732   */\n      dup3\n        /* \"#utility.yul\":1728:1729   */\n      dup3\n        /* \"#utility.yul\":1724:1733   */\n      mod\n        /* \"#utility.yul\":1719:1733   */\n      swap1\n      pop\n        /* \"#utility.yul\":1563:1739   */\n      swap3\n      swap2\n      pop\n      pop\n      jump\t// out\n        /* \"#utility.yul\":1745:1925   */\n    tag_28:\n        /* \"#utility.yul\":1793:1870   */\n      0x4e487b7100000000000000000000000000000000000000000000000000000000\n        /* \"#utility.yul\":1790:1791   */\n      0x00\n        /* \"#utility.yul\":1783:1871   */\n      mstore\n        /* \"#utility.yul\":1890:1894   */\n      0x11\n        /* \"#utility.yul\":1887:1888   */\n      0x04\n        /* \"#utility.yul\":1880:1895   */\n      mstore\n        /* \"#utility.yul\":1914:1918   */\n      0x24\n        /* \"#utility.yul\":1911:1912   */\n      0x00\n        /* \"#utility.yul\":1904:1919   */\n      revert\n        /* \"#utility.yul\":1931:2122   */\n    tag_16:\n        /* \"#utility.yul\":1971:1974   */\n      0x00\n        /* \"#utility.yul\":1990:2010   */\n      tag_55\n        /* \"#utility.yul\":2008:2009   */\n      dup3\n        /* \"#utility.yul\":1990:2010   */\n      tag_23\n      jump\t// in\n    tag_55:\n        /* \"#utility.yul\":1985:2010   */\n      swap2\n      pop\n        /* \"#utility.yul\":2024:2044   */\n      tag_56\n        /* \"#utility.yul\":2042:2043   */\n      dup4\n        /* \"#utility.yul\":2024:2044   */\n      tag_23\n      jump\t// in\n    tag_56:\n        /* \"#utility.yul\":2019:2044   */\n      swap3\n      pop\n        /* \"#utility.yul\":2067:2068   */\n      dup3\n        /* \"#utility.yul\":2064:2065   */\n      dup3\n        /* \"#utility.yul\":2060:2069   */\n      add\n        /* \"#utility.yul\":2053:2069   */\n      swap1\n      pop\n        /* \"#utility.yul\":2088:2091   */\n      dup1\n        /* \"#utility.yul\":2085:2086   */\n      dup3\n        /* \"#utility.yul\":2082:2092   */\n      gt\n        /* \"#utility.yul\":2079:2115   */\n      iszero\n      tag_57\n      jumpi\n        /* \"#utility.yul\":2095:2113   */\n      tag_58\n      tag_28\n      jump\t// in\n    tag_58:\n        /* \"#utility.yul\":2079:2115   */\n    tag_57:\n        /* \"#utility.yul\":1931:2122   */\n      swap3\n      swap2\n      pop\n      pop\n      jump\t// out\n        /* \"#utility.yul\":2128:2313   */\n    tag_18:\n        /* \"#utility.yul\":2168:2169   */\n      0x00\n        /* \"#utility.yul\":2185:2205   */\n      tag_60\n        /* \"#utility.yul\":2203:2204   */\n      dup3\n        /* \"#utility.yul\":2185:2205   */\n      tag_23\n      jump\t// in\n    tag_60:\n        /* \"#utility.yul\":2180:2205   */\n      swap2\n      pop\n        /* \"#utility.yul\":2219:2239   */\n      tag_61\n        /* \"#utility.yul\":2237:2238   */\n      dup4\n        /* \"#utility.yul\":2219:2239   */\n      tag_23\n      jump\t// in\n    tag_61:\n        /* \"#utility.yul\":2214:2239   */\n      swap3\n      pop\n        /* \"#utility.yul\":2258:2259   */\n      dup3\n        /* \"#utility.yul\":2248:2283   */\n      tag_62\n      jumpi\n        /* \"#utility.yul\":2263:2281   */\n      tag_63\n      tag_27\n      jump\t// in\n    tag_63:\n        /* \"#utility.yul\":2248:2283   */\n    tag_62:\n        /* \"#utility.yul\":2305:2306   */\n      dup3\n        /* \"#utility.yul\":2302:2303   */\n      dup3\n        /* \"#utility.yul\":2298:2307   */\n      div\n        /* \"#utility.yul\":2293:2307   */\n      swap1\n      pop\n        /* \"#utility.yul\":2128:2313   */\n      swap3\n      swap2\n      pop\n      pop\n      jump\t// out\n\n    auxdata: 0xa2646970667358221220820ef152aa6482ba0a8497627106eddce52a0a07a83646d041625fa1a6c9708064736f6c634300081a0033\n}\n",
				"bytecode": {
					"linkReferences": {},
					"object": "6080604052348015600e575f80fd5b506102518061001c5f395ff3fe608060405234801561000f575f80fd5b5060043610610029575f3560e01c8063d918cbb01461002d575b5f80fd5b610047600480360381019061004291906100db565b61005d565b6040516100549190610115565b60405180910390f35b5f805f90505b60011561009b57600a83610077919061015b565b8161008291906101b8565b9050600a8361009191906101eb565b92505f8303610063575b80915050919050565b5f80fd5b5f819050919050565b6100ba816100a8565b81146100c4575f80fd5b50565b5f813590506100d5816100b1565b92915050565b5f602082840312156100f0576100ef6100a4565b5b5f6100fd848285016100c7565b91505092915050565b61010f816100a8565b82525050565b5f6020820190506101285f830184610106565b92915050565b7f4e487b71000000000000000000000000000000000000000000000000000000005f52601260045260245ffd5b5f610165826100a8565b9150610170836100a8565b9250826101805761017f61012e565b5b828206905092915050565b7f4e487b71000000000000000000000000000000000000000000000000000000005f52601160045260245ffd5b5f6101c2826100a8565b91506101cd836100a8565b92508282019050808211156101e5576101e461018b565b5b92915050565b5f6101f5826100a8565b9150610200836100a8565b9250826102105761020f61012e565b5b82820490509291505056fea2646970667358221220820ef152aa6482ba0a8497627106eddce52a0a07a83646d041625fa1a6c9708064736f6c634300081a0033",
					"opcodes": "PUSH1 0x80 PUSH1 0x40 MSTORE CALLVALUE DUP1 ISZERO PUSH1 0xE JUMPI PUSH0 DUP1 REVERT JUMPDEST POP PUSH2 0x251 DUP1 PUSH2 0x1C PUSH0 CODECOPY PUSH0 RETURN INVALID PUSH1 0x80 PUSH1 0x40 MSTORE CALLVALUE DUP1 ISZERO PUSH2 0xF JUMPI PUSH0 DUP1 REVERT JUMPDEST POP PUSH1 0x4 CALLDATASIZE LT PUSH2 0x29 JUMPI PUSH0 CALLDATALOAD PUSH1 0xE0 SHR DUP1 PUSH4 0xD918CBB0 EQ PUSH2 0x2D JUMPI JUMPDEST PUSH0 DUP1 REVERT JUMPDEST PUSH2 0x47 PUSH1 0x4 DUP1 CALLDATASIZE SUB DUP2 ADD SWAP1 PUSH2 0x42 SWAP2 SWAP1 PUSH2 0xDB JUMP JUMPDEST PUSH2 0x5D JUMP JUMPDEST PUSH1 0x40 MLOAD PUSH2 0x54 SWAP2 SWAP1 PUSH2 0x115 JUMP JUMPDEST PUSH1 0x40 MLOAD DUP1 SWAP2 SUB SWAP1 RETURN JUMPDEST PUSH0 DUP1 PUSH0 SWAP1 POP JUMPDEST PUSH1 0x1 ISZERO PUSH2 0x9B JUMPI PUSH1 0xA DUP4 PUSH2 0x77 SWAP2 SWAP1 PUSH2 0x15B JUMP JUMPDEST DUP2 PUSH2 0x82 SWAP2 SWAP1 PUSH2 0x1B8 JUMP JUMPDEST SWAP1 POP PUSH1 0xA DUP4 PUSH2 0x91 SWAP2 SWAP1 PUSH2 0x1EB JUMP JUMPDEST SWAP3 POP PUSH0 DUP4 SUB PUSH2 0x63 JUMPI JUMPDEST DUP1 SWAP2 POP POP SWAP2 SWAP1 POP JUMP JUMPDEST PUSH0 DUP1 REVERT JUMPDEST PUSH0 DUP2 SWAP1 POP SWAP2 SWAP1 POP JUMP JUMPDEST PUSH2 0xBA DUP2 PUSH2 0xA8 JUMP JUMPDEST DUP2 EQ PUSH2 0xC4 JUMPI PUSH0 DUP1 REVERT JUMPDEST POP JUMP JUMPDEST PUSH0 DUP2 CALLDATALOAD SWAP1 POP PUSH2 0xD5 DUP2 PUSH2 0xB1 JUMP JUMPDEST SWAP3 SWAP2 POP POP JUMP JUMPDEST PUSH0 PUSH1 0x20 DUP3 DUP5 SUB SLT ISZERO PUSH2 0xF0 JUMPI PUSH2 0xEF PUSH2 0xA4 JUMP JUMPDEST JUMPDEST PUSH0 PUSH2 0xFD DUP5 DUP3 DUP6 ADD PUSH2 0xC7 JUMP JUMPDEST SWAP2 POP POP SWAP3 SWAP2 POP POP JUMP JUMPDEST PUSH2 0x10F DUP2 PUSH2 0xA8 JUMP JUMPDEST DUP3 MSTORE POP POP JUMP JUMPDEST PUSH0 PUSH1 0x20 DUP3 ADD SWAP1 POP PUSH2 0x128 PUSH0 DUP4 ADD DUP5 PUSH2 0x106 JUMP JUMPDEST SWAP3 SWAP2 POP POP JUMP JUMPDEST PUSH32 0x4E487B7100000000000000000000000000000000000000000000000000000000 PUSH0 MSTORE PUSH1 0x12 PUSH1 0x4 MSTORE PUSH1 0x24 PUSH0 REVERT JUMPDEST PUSH0 PUSH2 0x165 DUP3 PUSH2 0xA8 JUMP JUMPDEST SWAP2 POP PUSH2 0x170 DUP4 PUSH2 0xA8 JUMP JUMPDEST SWAP3 POP DUP3 PUSH2 0x180 JUMPI PUSH2 0x17F PUSH2 0x12E JUMP JUMPDEST JUMPDEST DUP3 DUP3 MOD SWAP1 POP SWAP3 SWAP2 POP POP JUMP JUMPDEST PUSH32 0x4E487B7100000000000000000000000000000000000000000000000000000000 PUSH0 MSTORE PUSH1 0x11 PUSH1 0x4 MSTORE PUSH1 0x24 PUSH0 REVERT JUMPDEST PUSH0 PUSH2 0x1C2 DUP3 PUSH2 0xA8 JUMP JUMPDEST SWAP2 POP PUSH2 0x1CD DUP4 PUSH2 0xA8 JUMP JUMPDEST SWAP3 POP DUP3 DUP3 ADD SWAP1 POP DUP1 DUP3 GT ISZERO PUSH2 0x1E5 JUMPI PUSH2 0x1E4 PUSH2 0x18B JUMP JUMPDEST JUMPDEST SWAP3 SWAP2 POP POP JUMP JUMPDEST PUSH0 PUSH2 0x1F5 DUP3 PUSH2 0xA8 JUMP JUMPDEST SWAP2 POP PUSH2 0x200 DUP4 PUSH2 0xA8 JUMP JUMPDEST SWAP3 POP DUP3 PUSH2 0x210 JUMPI PUSH2 0x20F PUSH2 0x12E JUMP JUMPDEST JUMPDEST DUP3 DUP3 DIV SWAP1 POP SWAP3 SWAP2 POP POP JUMP INVALID LOG2 PUSH5 0x6970667358 0x22 SLT KECCAK256 DUP3 0xE CALL MSTORE 0xAA PUSH5 0x82BA0A8497 PUSH3 0x7106ED 0xDC 0xE5 0x2A EXP SMOD 0xA8 CALLDATASIZE CHAINID 0xD0 COINBASE PUSH3 0x5FA1A6 0xC9 PUSH17 0x8064736F6C634300081A00330000000000 "
				},
				"gasEstimates": {
					"creation": {
						"codeDepositCost": "118600",
						"executionCost": "163",
						"totalCost": "118763"
					},
					"external": {
						"sumDigit(uint256)": "infinite"
					}
				},
				"methodIdentifiers": {
					"sumDigit(uint256)": "d918cbb0"
				}
			},
			"storageLayout": {
				"storage": [],
				"types": null
			},
			"userdoc": {
				"kind": "user",
				"methods": {},
				"version": 1
			}
		}
	}
}