{
  "contractName": "Calculator",
  "abi": [
    {
      "anonymous": false,
      "inputs": [
        {
          "indexed": false,
          "internalType": "uint256",
          "name": "result",
          "type": "uint256"
        }
      ],
      "name": "Result",
      "type": "event"
    },
    {
      "inputs": [
        {
          "internalType": "uint256",
          "name": "a",
          "type": "uint256"
        },
        {
          "internalType": "uint256",
          "name": "b",
          "type": "uint256"
        }
      ],
      "name": "add",
      "outputs": [
        {
          "internalType": "uint256",
          "name": "",
          "type": "uint256"
        }
      ],
      "stateMutability": "nonpayable",
      "type": "function"
    },
    {
      "inputs": [
        {
          "internalType": "uint256",
          "name": "a",
          "type": "uint256"
        },
        {
          "internalType": "uint256",
          "name": "b",
          "type": "uint256"
        }
      ],
      "name": "subtract",
      "outputs": [
        {
          "internalType": "uint256",
          "name": "",
          "type": "uint256"
        }
      ],
      "stateMutability": "nonpayable",
      "type": "function"
    },
    {
      "inputs": [
        {
          "internalType": "uint256",
          "name": "a",
          "type": "uint256"
        },
        {
          "internalType": "uint256",
          "name": "b",
          "type": "uint256"
        }
      ],
      "name": "multiply",
      "outputs": [
        {
          "internalType": "uint256",
          "name": "",
          "type": "uint256"
        }
      ],
      "stateMutability": "nonpayable",
      "type": "function"
    },
    {
      "inputs": [
        {
          "internalType": "uint256",
          "name": "a",
          "type": "uint256"
        },
        {
          "internalType": "uint256",
          "name": "b",
          "type": "uint256"
        }
      ],
      "name": "divide",
      "outputs": [
        {
          "internalType": "uint256",
          "name": "",
          "type": "uint256"
        }
      ],
      "stateMutability": "nonpayable",
      "type": "function"
    }
  ],
  "bytecode": "0x608060405234801561000f575f80fd5b506105108061001d5f395ff3fe608060405234801561000f575f80fd5b506004361061004a575f3560e01c8063165c4a161461004e5780633ef5e4451461007e578063771602f7146100ae578063f88e9fbf146100de575b5f80fd5b610068600480360381019061006391906102cb565b61010e565b6040516100759190610318565b60405180910390f35b610098600480360381019061009391906102cb565b61015f565b6040516100a59190610318565b60405180910390f35b6100c860048036038101906100c391906102cb565b6101b0565b6040516100d59190610318565b60405180910390f35b6100f860048036038101906100f391906102cb565b610201565b6040516101059190610318565b60405180910390f35b5f80828461011c919061035e565b90507fa9bb0fa194e939eadb11be8d62dd4a16e0f5e89f37fb73fa7f0f8446f1abba618160405161014d9190610318565b60405180910390a18091505092915050565b5f80828461016d919061039f565b90507fa9bb0fa194e939eadb11be8d62dd4a16e0f5e89f37fb73fa7f0f8446f1abba618160405161019e9190610318565b60405180910390a18091505092915050565b5f8082846101be91906103d2565b90507fa9bb0fa194e939eadb11be8d62dd4a16e0f5e89f37fb73fa7f0f8446f1abba61816040516101ef9190610318565b60405180910390a18091505092915050565b5f808203610244576040517f08c379a000000000000000000000000000000000000000000000000000000000815260040161023b9061045f565b60405180910390fd5b5f828461025191906104aa565b90507fa9bb0fa194e939eadb11be8d62dd4a16e0f5e89f37fb73fa7f0f8446f1abba61816040516102829190610318565b60405180910390a18091505092915050565b5f80fd5b5f819050919050565b6102aa81610298565b81146102b4575f80fd5b50565b5f813590506102c5816102a1565b92915050565b5f80604083850312156102e1576102e0610294565b5b5f6102ee858286016102b7565b92505060206102ff858286016102b7565b9150509250929050565b61031281610298565b82525050565b5f60208201905061032b5f830184610309565b92915050565b7f4e487b71000000000000000000000000000000000000000000000000000000005f52601160045260245ffd5b5f61036882610298565b915061037383610298565b925082820261038181610298565b9150828204841483151761039857610397610331565b5b5092915050565b5f6103a982610298565b91506103b483610298565b92508282039050818111156103cc576103cb610331565b5b92915050565b5f6103dc82610298565b91506103e783610298565b92508282019050808211156103ff576103fe610331565b5b92915050565b5f82825260208201905092915050565b7f43616e6e6f7420646976696465206279207a65726f2e000000000000000000005f82015250565b5f610449601683610405565b915061045482610415565b602082019050919050565b5f6020820190508181035f8301526104768161043d565b9050919050565b7f4e487b71000000000000000000000000000000000000000000000000000000005f52601260045260245ffd5b5f6104b482610298565b91506104bf83610298565b9250826104cf576104ce61047d565b5b82820490509291505056fea2646970667358221220e343e9a560de73fff9dedab7c385c38676d11c42871560076e00de77e6c0356764736f6c63430008150033",
  "immutableReferences": {},
  "source": "// SPDX-License-Identifier: GPL-3.0\r\npragma solidity >=0.8.2 <0.9.0;\r\n\r\ncontract Calculator {\r\n\r\n    event Result(uint result);\r\n\r\n    // Removed 'pure' and 'view' modifiers\r\n    function add(uint a, uint b) public returns (uint) {\r\n        uint result = a + b;\r\n        emit Result(result);\r\n        return result;\r\n    }\r\n\r\n    function subtract(uint a, uint b) public returns (uint) {\r\n        uint result = a - b;\r\n        emit Result(result);\r\n        return result;\r\n    }\r\n\r\n    function multiply(uint a, uint b) public returns (uint) {\r\n        uint result = a * b;\r\n        emit Result(result);\r\n        return result;\r\n    }\r\n\r\n    function divide(uint a, uint b) public returns (uint) {\r\n        require(b != 0, \"Cannot divide by zero.\");\r\n        uint result = a / b;\r\n        emit Result(result);\r\n        return result;\r\n    }\r\n}\r\n",
  "sourcePath": "C:\\Users\\PC\\OneDrive\\Desktop\\Beni\\My Courses\\Year2\\Courses\\Web3\\practice\\Calculator_GPTMODIFICATIONS\\contracts\\Calculator.sol",
  "compiler": {
    "name": "solc",
    "version": "0.8.21+commit.d9974bed.Emscripten.clang"
  },
  "schemaVersion": "3.4.16",
  "updatedAt": "2025-03-07T08:16:45.835Z",
  "networkType": "ethereum",
  "devdoc": {
    "kind": "dev",
    "methods": {},
    "version": 1
  },
  "userdoc": {
    "kind": "user",
    "methods": {},
    "version": 1
  }
}